:020000040800F2
:10000000300E00202902000873310008B1280008D2
:10001000713100081F040008993E0008000000002C
:100020000000000000000000000000009D360008F5
:10003000DD040008000000006D3500089F36000850
:10004000430200084302000843020008430200087C
:100050004302000843020008DF040008E50400082A
:10006000430200084302000843020008430200085C
:10007000430200084302000843020008430200084C
:10008000430200084302000843020008430200083C
:10009000430200084302000843020008430200082C
:1000A000430200084302000843020008430200081C
:1000B00043020008493700084302000843020008D1
:1000C00043020008430200084302000843020008FC
:1000D00071350008593E0008430200084302000839
:1000E00043020008430200084302000843020008DC
:1000F00043020008430200084302000843020008CC
:1001000043020008430200084302000843020008BB
:100110004302000843020008430200085537000864
:1001200043020008430200082104000843020008BB
:100130004302000800000000000000004302000825
:10014000430200084302000843020008430200087B
:1001500043020008430200082D040008430200087F
:10016000430200084302000843020008430200085B
:1001700043020008430200080000000000000000E5
:10018000430200084302000800F002F800F03CF8C7
:100190000AA090E8000C82448344AAF10107DA45E2
:1001A00001D100F031F8AFF2090EBAE80F0013F0F8
:1001B000010F18BFFB1A43F00103184770620000DB
:1001C00090620000103A24BF78C878C1FAD852076C
:1001D00024BF30C830C144BF04680C6070470000C1
:1001E0000023002400250026103A28BF78C1FBD840
:1001F000520728BF30C148BF0B6070471FB504F0DD
:10020000F8F91FBD10B510BD00F0CFF81146FFF78B
:10021000F5FF03F053FE00F0EDF803B4FFF7F2FF33
:1002200003BC00F0F5F80000094880470948004782
:10023000FEE7FEE7FEE7FEE7FEE7FEE7FEE7FEE796
:10024000FEE7FEE704480549054A064B70470000F3
:10025000393700088901000830080020300E0020DE
:10026000300A0020300A002053EA020C00F06980B6
:100270002DE9F04B4FF00006002B1FBFB3FA83F5BA
:1002800003FA05F424FA05F65E4012BF1643B2FAEB
:1002900082F502FA05F4C5F120051EBF22FA05FC1D
:1002A00044EA0C04203556EA044C4FEA144418BFC3
:1002B000641C4FF000084FF00009904271EB030CF2
:1002C00039D3002919BFB1FA81F701FA07F6B0FA5C
:1002D00080F700FA07F6C7F120071EBF20FA07FCD7
:1002E00046EA0C062037B6FBF4FCA7EB0507103FE7
:1002F00007F01F0BCBF120060CFA0BFB2CFA06F6CD
:1003000044BFB3460026202FA4BF5E464FF0000B2B
:100310005BEA060C08BF4FF0010B19EB0B09ABFBB6
:10032000027C48EB0608C01B06FB02CC0BFB03CC8F
:1003300071EB0C01C1E70B46024641464846BDE859
:10034000F08B13B54FF000004FF00001AFF30080C9
:10035000BDE81C4070474FF0000200B513469446BC
:100360009646203922BFA0E80C50A0E80C50B1F10D
:100370002001BFF4F7AF090728BFA0E80C5048BF21
:100380000CC05DF804EB890028BF40F8042B08BFBF
:10039000704748BF20F8022B11F0804F18BF00F8BB
:1003A000012B7047704770477047754600F02CF876
:1003B000AE4605006946534620F00700854618B052
:1003C00020B5FFF73FFFBDE820404FF000064FF09B
:1003D00000074FF000084FF0000B21F00701AC467A
:1003E000ACE8C009ACE8C009ACE8C009ACE8C00999
:1003F0008D46704710B50446AFF300802046BDE837
:100400001040FFF70ABF000000487047CC070020EB
:1004100001491820ABBEFEE7260002007047FEE748
:10042000014800F0BFB800008C020020014800F035
:10043000B9B80000EC02002001681823CAB2103AD3
:10044000B2FBF3F2054B6FF30901032A9B5CC36512
:1004500000D9091D8165084670470000FC45000869
:1004600010B5014600208B698A6A4FF0C07453B101
:10047000B3F5005F15D072B1012A0CD0022A0AD060
:10048000032A09D104E01AB1012A06D0022A03D1B5
:10049000C96AC90100D5012010BDC96AA142FAD0BC
:1004A00010BD002AF7D0012AF2D0022AF3D0032A85
:1004B000F3D010BD30B50468256825F4802525608B
:1004C000046863608368402B036803D09960006808
:1004D000C26030BD9A600068C16030BD70470120C5
:1004E00000F0F4B9022000F0F1B972B6FEE72DE990
:1004F000F0410446876D00F0FFFA064694F8350097
:100500000025022806D08020606584F83450012040
:10051000BDE8F0812068016821F0160101602068C3
:10052000416921F080014161206C08B9A06C20B1C3
:100530002068016821F0080101602068016821F04D
:10054000010101600CE000F0D7FA801B052807D9F3
:1005500020206065032084F8350084F83450D7E704
:1005600020680068C007EED194F85C103F208840F6
:10057000B860012084F8350084F834500020C7E7C3
:1005800090F83510022903D0802141650120704781
:10059000052180F835100068016821F00101016033
:1005A000002070472DE9F84304464FF00009CDF8CC
:1005B000009063484FF41651A56D0068B0FBF1F749
:1005C0002E6894F85C10082000FA01F131420FD037
:1005D00021680A6852070BD50A6822F004020A60F3
:1005E00094F85C108840A860606D40F00100606580
:1005F00094F85C104FF0010808FA01F0304208D07E
:1006000021684969090604D5A860606D40F00200C0
:10061000606594F85C1004208840304208D021685E
:100620000968890704D5A860606D40F00400606522
:1006300094F85C1010208840304218D02168096876
:10064000090714D5A86020680168490304D500682B
:10065000000308D5A16C07E00168C90503D401684F
:1006600021F008010160216C09B12046884794F807
:100670005C1020208840304231D021680968C906CA
:100680002DD5A86094F8350005282068016806D0AB
:10069000490347D5006800031DD4616C1CE021F0BC
:1006A000160101602068416921F080014161206CE0
:1006B00008B9A06C20B12068016821F00801016030
:1006C00094F85C103F208840A86084F8358084F856
:1006D0003490216D1FE0E16B09B120468847606DC1
:1006E00000282BD0606DC00714D0052084F8350099
:1006F0002068016821F0010101600098401C009011
:10070000B84203D820680068C007F6D184F8358065
:1007100084F83490E16C002910D001B02046BDE887
:10072000F04308470168C905D5D4016821F01001DC
:10073000016084F8358084F83490CCE7BDE8F88314
:10074000640000202DE9F041044600F0D5F906468A
:100750005CB1022084F83500002584F8345020680C
:10076000016821F0010101600DE00120BDE8F08188
:1007700000F0C2F9801B052805D920206065032000
:1007800084F83500F2E720680068C007F0D12268DD
:10079000116820480140D4E901031843D4E9033625
:1007A0003343184363691843A3691843E369184343
:1007B000236A18430843616A042903D1D4E90B135F
:1007C00019430843106020684069666A20F00701F9
:1007D00030460E43012704280CD1A06A0643E06A84
:1007E00040B12046FFF73CFE20B14020606584F810
:1007F0003570BAE7206846612046FFF71DFE94F881
:100800005C203F2191408160656584F8357000204F
:10081000ACE700003F8010F02DE9F0410446866D02
:1008200090F83400002501280DD0012084F8340010
:1008300094F835700020012F07D084F83400022589
:100840002846BDE8F0810220FBE7022784F83570D6
:1008500060652046FFF72EFE94F85C103F2088402C
:10086000B0602068016841F016010160206C20B181
:100870002068016841F0080101602068016841F0CA
:1008800001010160DCE7000070B5044600F034F9B6
:100890000546601C02D004480078044400F02CF99E
:1008A000401BA042FAD370BD580000200649012821
:1008B00007D0022804D1B7EE000A00BF81ED130A69
:1008C0007047B6EE000AF9E700000020044910B5B1
:1008D0000A68024202D00860FFF7E8FF10BD00007E
:1008E000143C01402DE9F84FDFF8BCA1002201259E
:1008F00003264FF00F090AF1040BAAF1040E00BF02
:100900000B6805FA02F42340A34270D10F7907F077
:100910000307012F01D0022F16D187684FEA420842
:1009200006FA08FC27EA0C07D1F80CC00CFA08FC00
:100930004CEA070CC0F808C04768A7430C79C4F319
:10094000001494403C4344600C79E443A4070AD06B
:10095000C4684FEA420C06FA0CF7BC438F6807FAEA
:100960000CF72743C7600C7904F00304022C12D162
:10097000D40800EB840CDCF820405707FF0E09FA7E
:1009800007F824EA0804D1F8108008FA07F848EAC2
:100990000408CCF8208004684FEA420C06FA0CF7F1
:1009A000BC430F7907F0030707FA0CF727430760EA
:1009B0004C6814F4403F70D03C4C276847F48047A3
:1009C0002760246822F0030704F480440094384C24
:1009D00007EB040CDCF8084897074FEA177809FA88
:1009E00008F7BC43334FB84202D1002724E054E05B
:1009F000314FB84201D101271EE0304FB84201D13A
:100A0000022719E02E4FB84201D1032714E02D4FE1
:100A1000B84201D104270FE02B4FB84201D105277E
:100A20000AE02A4FB84201D1062705E0284FB84214
:100A300001D1072700E0082707FA08F72743CCF879
:100A40000878DAF800405746D1F804C09C435FEAC2
:100A5000CC2C00D51C433C60DBF800405F46D1F84D
:100A600004C09C435FEA8C2C00D51C433C60DEF83C
:100A700000407746D1F804C09C435FEA8C3C00D527
:100A80001C433C60084F083F3C68D1F804C09C43BD
:100A90005FEACC3C00D51C433C60521C102AFFF49A
:100AA0002FAFBDE8F88F0000083C014044380240F9
:100AB00000300140000002400004024000080240F3
:100AC000000C0240001002400014024000180240D6
:100AD000001C02400069084000D0012070474269B4
:100AE00021EA02030A4043EA0241816170470AB1E8
:100AF000816170470904FBE7014880687047000086
:100B00005800002070B5040025D094F83D00002561
:100B100020B984F83C50204600F03EFA242084F8A6
:100B20003D002068016821F0010101602068016832
:100B300041F4004101602068016821F40041016036
:100B400000F094FB4D4A6168914201D84C4900E0A5
:100B50004C49884201D2012070BD4B492368B0FB4B
:100B6000F1F15E6826F03F060E435E6063689342D3
:100B700006D94FF4967359434FF47A73B1FBF3F1EE
:100B80002368491C1E6A26F03F06314319626168DA
:100B9000914210D84900401EB0FBF1F2521CC2F342
:100BA0000B02042A01D2042022E0B0FBF1F0401C29
:100BB000C0F30B001CE0A268F2B301EBC10303EB2E
:100BC0000116431EB3FBF6F35B1C43F480431B0585
:100BD00049D092B301EBC10202EB0111401EB0FB00
:100BE000F1F0401CC0F30B0040F4804040F40040A2
:100BF0002168CA694CF6FF739A431043C861D4E96F
:100C0000071001432068026822F0C002114301600E
:100C1000D4E9030101432068826848F2FF339A4314
:100C200011438160D4E9050108432168CA6822F0B4
:100C3000FF021043C86001E00EE016E02068016882
:100C400041F0010101602564202084F83D00256306
:100C500084F83E50002070BD01EB4106431EB3FBFB
:100C6000F6F35B1CB3E70120C2E701EB4101401E34
:100C7000B0FBF1F0401CC0F30B00B7E7A086010009
:100C800080841E0000093D0040420F002DE9F84F0E
:100C90001F4690468A460446DDF82890FFF72CFF51
:100CA000054694F83D00202875D1192301226C498E
:100CB0002046009501F0FEFE0028F5D194F83C0096
:100CC000012868D0012084F83C0020680168C90729
:100CD00003D1016841F0010101602068016821F43D
:100CE00000610160222084F83D00102084F83E005D
:100CF00000262664C4F824806785608D20855948C5
:100D0000E0622B464A465146204601F0E9FD0028A4
:100D100078D1208D544F68B1012814D00228206862
:100D2000016816D041F480610160206841698069E2
:100D3000009087E02068416981690091016841F471
:100D4000007101607EE02068016821F4806101602B
:100D5000F0E721F4806101602068016841F40061DE
:100D6000E2E7032848D801280AD0022814D04B46CD
:100D7000002239462046009501F09CFED8BB27E0B2
:100D80002A464946204601F014FFA0BB20680069AE
:100D9000616A08704DE061E04B460022394620460A
:100DA000009501F087FE30BB2068016841F40071B6
:100DB000016020680069616A0870606A401C6062B6
:100DC000218D491E2185618D491E618521682EE096
:100DD0002068016821F48061016020680069616A0F
:100DE0000870606A401C6062208D401E2085608D06
:100DF000401E6085D0E705E02A464946204601F0BE
:100E0000D8FE10B10120BDE8F88F20680069616A42
:100E10000870606A401C6062218D491E2185618DC9
:100E2000491E618521684A69D24352070AD409697B
:100E30000170606A401C6062208D401E2085608DBC
:100E4000401E6085208D00288BD1202084F83D0035
:100E500084F83E6084F83C600020D4E70220D2E7AA
:100E6000020010000000FFFF040001002DE9F84F10
:100E70001F4690468A460446DDF82890FFF73CFE60
:100E8000054694F83D0020287FD1192301224049CE
:100E90002046009501F00EFE002876D194F83C0023
:100EA000012872D0012084F83C0020680168C9073D
:100EB00003D1016841F0010101602068016821F45B
:100EC00000610160212084F83D00102084F83E007C
:100ED00000262664C4F824806785608D20852D480F
:100EE000E0622B464A465146204601F06FFD90B91C
:100EF000206841698069009036E02A4649462046CC
:100F000001F08AFE50B1206C042804D120680168E9
:100F100041F4007101600120BDE8F88F606A21682A
:100F200000780861606A401C6062618D491E6185BD
:100F3000218D491E89B2218522685369DB435B07F5
:100F40000BD451B100781061606A401C6062608D02
:100F5000401E6085208D401E20852A464946204639
:100F600001F082FD0028CED1208D0028C5D154F893
:100F70003D0B016841F400710160202004F81E0956
:100F8000E67766770020C7E7FFE70220C4E70000A6
:100F9000020010000000FFFF10B586B004461421C7
:100FA0006846FFF7D8F914492068884221D11348D0
:100FB0000021026842F002020260006800F00200B4
:100FC00005904FF4407000901220CDE901010320FC
:100FD00003900420049069460948FFF783FC074802
:100FE0001030016841F400110160006800F4001045
:100FF000059006B010BD000000540040303802409B
:101000000004024002488168027811448160704700
:10101000580000200B4810B5016841F400710160D0
:10102000016841F480610160016841F480710160F0
:10103000032000F06FF80F2000F006F800F024F80D
:10104000002010BD003C024070B50D4D04464FF429
:101050007A712878B1FBF0F00A490968B1FBF0F029
:1010600000F0D9FC48B9102C07D200222146501EAE
:1010700000F030F800206C6070BD012070BD0000F1
:1010800058000020640000200A4808B5016841F4B7
:1010900080410160006800F4804000900548001F16
:1010A000016841F080510160006800F080500090BC
:1010B00008BD000044380240002809DB00F01F0290
:1010C000012191404009800000F1E020C0F80011AA
:1010D00070470000F0B40E4B1B680C46C3F30223AC
:1010E000C3F10705042D00D90425191D072901D2D4
:1010F000002300E0DB1E012606FA05F1491E21400F
:1011000099409E40761E16403143F0BC02F0C5BEA9
:101110000CED00E0064900F0070208684FF6FF03F7
:10112000184040EA0220034A10430860704700005C
:101130000CED00E00000FA052DE9F0470E46050031
:1011400065D0DFF81481D8F80000F7B200F007008E
:10115000B04207D288F80070D8F8000000F007000D
:10116000B04254D128683D4C810712D5400703D5C1
:10117000206840F4E05020602878000703D52068FC
:1011800040F4604020602068A96820F0F000084327
:1011900020602878C0072DD03049686808390128B8
:1011A00012D0022813D0032811D00968890700291A
:1011B0002DDA216821F0030101432160FFF79CFC37
:1011C000814641F2883A0EE009688903EFE7096831
:1011D0008901ECE7FFF790FCA0EB0901514502D92A
:1011E0000320BDE8F0872068696800F00C00B0EBD0
:1011F000810FEFD1D8F80010404601F00701B1424D
:1012000007D90770006800F00700B04201D0012044
:10121000E7E72878400705D52068E96820F4E05022
:10122000084320602878000706D52068296920F443
:10123000604040EAC100206000F038F82168084AA8
:10124000C1F30311515CC8400649086006480068B4
:10125000FFF7FAFE0020C4E7003C024008380240D5
:1012600004460008640000205C0000200448054992
:1012700000680968044AC1F38221515CC840704784
:10128000640000200838024014460008044805495C
:1012900000680968044AC1F34231515CC840704794
:1012A000640000200838024014460008154810B5B4
:1012B000006810F00C02144813D04110042A0FD01B
:1012C000082A0ED10F4C241F2268236802F03F0227
:1012D0005B0207D52068C0F38810A0FB010106E07F
:1012E000084610BD2168C1F38811A1FB000100234D
:1012F000FEF7BAFF2168C1F30141491C4900B0FB68
:10130000F1F010BD083802400024F4002DE9F84F38
:1013100004006ED02078DFF84C93C007A9F10405D3
:101320004AD009F104000168C1F38101012908D004
:101330000068C0F3810002280AD1D9F800004002F9
:1013400006D52868800337D560680028E1D033E0EF
:101350006068B0F5803F10D0B0F5A02F286810D09D
:1013600020F480302860286820F48020286060689D
:10137000A8B1FFF7C1FB06460DE0286840F48030B5
:10138000F4E740F480202860F7E700BFFFF7B4FBE4
:10139000801B642873D828688003F7D50CE0FFF71A
:1013A000ABFB064605E000BFFFF7A6FB801B6428E9
:1013B000F0D828688003F7D42078DFF8AC82800763
:1013C0004FF0000A3ED5A748001D016811F00C0F30
:1013D00008D00068C0F3810002280BD1D9F80000C2
:1013E000400207D42868800716D5E068012800D19C
:1013F00012E033E1E068B8B10120C8F80000FFF75F
:101400007BFB064605E000BFFFF776FB801B02284A
:10141000C0D828688007F7D52868216920F0F8002F
:1014200040EAC10028600DE0C8F800A0FFF764FBA7
:10143000064604E0FFF760FB801B02281FD82868DF
:101440008007F7D42078000722D5864F8748616946
:10145000703771B101210160FFF74EFB064604E0D1
:10146000FFF74AFB801B022809D838688007F7D5A8
:101470000EE0C0F800A0FFF73FFB064605E082E063
:10148000FFF73AFB801B02287DD838688007F7D425
:101490002078400768D5DFF8CCB100270BF13C0B72
:1014A000DBF80000C0000BD4DBF8001041F08051E5
:1014B000CBF80010DBF80000012700F0805000900E
:1014C0006B4E3068C00510D4306840F480703060D6
:1014D000FFF712FB009005E0FFF70EFB0099401AA2
:1014E000022850D83068C005F6D55E4EA0686C362C
:1014F00001280FD00528306810D020F0010030609E
:10150000306820F004003060A068B8B1FFF7F4FA4A
:1015100000900FE0306840F00100F4E740F0040074
:101520003060F7E7FFF7E8FA0099411A41F2883096
:10153000814266D830688007F4D50EE0FFF7DCFA08
:10154000009007E0FFF7D8FA0099411A41F288307D
:10155000814256D830688007F4D42FB1DBF80010F0
:1015600021F08051CBF80010A069C8B33D49091D96
:101570000968C1F3810102294AD00228504607D0E8
:10158000C8F8600000E03CE0FFF7B6FA04463BE034
:101590004746C8F86000FFF7AFFA064605E000BF0F
:1015A000FFF7AAFA801B02282BD828688001F7D4FD
:1015B000D4E907010843A16A2E4A490802EB014118
:1015C000626A41EA8211084394F82C1040EA0161F2
:1015D000C9F8001001203866FFF78EFA044606E0CD
:1015E0003EE000BFFFF788FA001B022809D82868F0
:1015F0008001F7D534E000BFFFF77EFA001B022818
:1016000002D90320BDE8F88F28688001F4D427E0D0
:101610000128F7D0D9F80000E26900F48001914276
:101620001CD1226A00F03F01914217D147F6C071E8
:10163000626A0140B1EB821F10D1A26A4FF0FF3302
:1016400000F4403103EB5202B1EB024F06D194F8A3
:101650002C1000F07060B0EB016F01D00120D1E7D9
:101660000020CFE70438024000004742800E474286
:10167000007000400000FFFF7047000038B50168AF
:1016800004464A688868C043430606D5C30704D1A8
:10169000D3435B0601D4216C05E0830708D4D34310
:1016A0001B0605D4616C01B02046BDE830400847F8
:1016B000830603D5430601D5C30551D4D3439B0606
:1016C0004ED443060AD494F85130032B49D0636DAD
:1016D00043F004036365CB688B680093830609D4E9
:1016E000636D43F0010363658B6800930B6823F01F
:1016F00040030B60C00506D4606D40F008006065D3
:10170000206880680090606D002829D020684168BA
:1017100021F0E0014160012084F85100900701D4DC
:10172000D00722D02068416821F003014160114DAB
:10173000E06C40B10565E06CFEF722FF18B1606D0A
:1017400040F040006065A06C002809D00565A06CE1
:10175000FEF716FF002803D0606D40F04000606582
:1017600038BDC8688868009038BD2046FFF784FF00
:1017700038BD00007D35000870B5040009D0606AEE
:10178000002540B125616561A56294F8510040B122
:101790000CE0012070BD6068B0F5827FF4D0E56197
:1017A000F2E784F85050204600F044F8022084F814
:1017B00051002068016821F040010160A088218962
:1017C00000F4827001F404410843A18901F400612E
:1017D0000843217C01F002010843217D01F0010151
:1017E0000843218B01F400710843217F01F0380187
:1017F000084394F8201001F080010843218D01F482
:101800000051084321680860A069042101EA1040E2
:1018100094F8241001F01001084321684860206802
:10182000C16921F40061C1616565012084F851003E
:10183000002070BD10B586B0044614216846FEF73E
:101840008AFD18492068884229D11748002102687A
:1018500042F480420260006800F480400590124823
:101860001038026842F002020260006800F00200D4
:1018700005904FF4204000900220CDE901010320A3
:1018800003900520049069460848FFF72BF80022D2
:1018900011462420FFF71EFC2420FFF70DFC06B0A4
:1018A00010BD0000003800404038024000040240F3
:1018B0002DE9F84F044690F8500000271D461646C3
:1018C000894601280DD04FF0010B84F850B0FFF786
:1018D00013F9804694F85100BA46012804D0022733
:1018E00093E00220BDE8F88FB9F1000F73D0002E0D
:1018F00071D0032084F85100C4F854A0C4F830908B
:10190000A686E686C4F838A0A4F83CA0A4F83EA0B9
:10191000C4F844A0C4F840A0A068B0F5004F09D1B5
:101920002068016821F0400101602068016841F4ED
:101930008041016020680168490603D4016841F0D4
:1019400040010160E068B0F5006F606803D030B31B
:10195000012E24D041E008B1012E1CD1206B21685A
:101960000088C86006E020688168890709D5216B76
:101970000988C160206B801C2063E08E401EE086D9
:1019800009E0FFF7B9F8A0EB0800A84202D3681CF1
:1019900001D031E07DB3E08E0028E4D120E0206B5F
:1019A00021680078087306E020688168890709D5F6
:1019B000216B09780173206B401C2063E08E401E70
:1019C000E0860AE0FFF798F8A0EB0800A84203D3EE
:1019D000681C02D010E017E06DB1E08E0028E3D162
:1019E00042462946204601F0D1FD08B1202060651D
:1019F000A06818B106E0FFE7032706E02068C16889
:101A000080680090606D00B1012784F851B084F8BF
:101A100050A0384666E710B5401EB0F1807F01D374
:101A2000012010BD4FF0E02460610F21601702F02B
:101A300034FA0020A06107202061002010BD70470B
:101A4000704710B590F83C20012A22D0012280F87E
:101A50003C20CA688C6822F4407222434C6822F40D
:101A6000806222430C6822F4006222430C6922F453
:101A7000805222434C6922F400522243C969002358
:101A800022F480420A4301684A6480F83C30002016
:101A900010BD022010BD000070B590F83C20012A56
:101AA00032D0012480F83C40022280F83D200368B7
:101AB0005A689D6822F070060A6832435A60134BD8
:101AC00002689A4214D0B2F1804F11D0104B9A4262
:101AD0000ED0104B9A420BD00F4B9A4208D00F4BAE
:101AE0009A4205D00E4B9A4202D00E4B9A4204D134
:101AF000496825F080031943916080F83D4000213A
:101B000080F83C10084670BD022070BD0000014006
:101B10000004004000080040000C004000040140A8
:101B2000004001400018004010B50446022249B1AF
:101B300004290ED0082913D094F84500012816D0A6
:101B4000012010BD94F842000128F9D184F8422008
:101B50000FE094F843000128F2D184F8432008E014
:101B600094F844000128EBD184F8442001E084F883
:101B700045200422206801F064FE2068416C41F495
:101B80000041416411492068884214D0B0F1804F6F
:101B900011D00F4988420ED00E4988420BD00E4911
:101BA000884208D00D49884205D00D49884202D0AC
:101BB0000C49884204D1816801F00701062903D04D
:101BC000016841F001010160002010BD00000140EA
:101BD0000004004000080040000C004000040140E8
:101BE000004001400018004010B5040003D094F8F4
:101BF0003D0010B107E0012010BD002084F83C003A
:101C0000204600F01FF8022084F83D00211D2068C6
:101C100001F0A6FD012084F8460084F83E0084F817
:101C20003F0084F8400084F8410084F8420084F8C2
:101C3000430084F8440084F8450084F83D00002007
:101C400010BD000008B501681C48814201D11C4844
:101C500016E01B48001FB1F1804F11D0194A914284
:101C600017D1016841F0020101600068002200F014
:101C70000200009011461D20FFF72CFA1D2019E0EC
:101C8000016841F001010160006800F0010000906E
:101C900008BD0D4A9142FBD1016841F0200101606D
:101CA0000068002200F02000009011463720FFF766
:101CB00011FA3720BDE80840FFF7FEB900000140E7
:101CC00044380240000400400014004090F83D10E9
:101CD000012901D001207047022180F83D100068E1
:101CE0001149884214D0B0F1804F11D00F49884279
:101CF0000ED00F4988420BD00E49884208D00E49B9
:101D0000884205D00D49884202D00D49884204D14D
:101D1000816801F00701062903D0016841F0010143
:101D200001600020704700000000014000040040F6
:101D300000080040000C0040000401400040014049
:101D40000018004090F83D10012901D00120704793
:101D5000022180F83D100168CA6842F00102CA60A1
:101D600000681149884214D0B0F1804F11D00F495A
:101D700088420ED00E4988420BD00E49884208D0C6
:101D80000D49884205D00D49884202D00C4988424D
:101D900004D1816801F00701062903D0016841F0F0
:101DA0000101016000207047000001400004004074
:101DB00000080040000C00400004014000400140C9
:101DC0000018004070B5044690F83C00002501283A
:101DD00017D0012684F83C60022084F83D0020687A
:101DE000826822F0770222F47F42826008685028DD
:101DF00038D00DDC20284FD005DC90B3102811D14D
:101E00004AE0022070BD302846D040280AD13BE08D
:101E100060282FD070280DD0B0F5805F03D0B0F5CA
:101E2000005F12D0012584F83D60002084F83C005A
:101E3000284670BDCB68D1E90121206801F00EFD74
:101E40002068816841F0770109E0CB68D1E9012180
:101E5000206801F003FD2068816841F480418160C1
:101E6000E1E719E0CA684968206801F0CBFD50211C
:101E7000206806E0CA684968206801F0D4FD602146
:101E8000206801F0F5FCCEE7CA684968206801F0D7
:101E9000B9FD40212068F4E7226801461046F0E7CA
:101EA000704770B50446006801694FF00005C943EA
:101EB000890715D4C168C943890711D4E91E016196
:101EC00001202077206880698007204602D0FFF734
:101ED000E7FF04E000F0E8F8204600F07AF9257703
:101EE00020680169C943490717D4C168C943490734
:101EF00013D46FF00401016102202077206880690B
:101F000010F4407F204602D0FFF7CAFF04E000F043
:101F1000CBF8204600F05DF9257720680169C943B8
:101F2000090716D4C168C943090712D46FF0080124
:101F30000161042020772068C0698007204602D014
:101F4000FFF7AEFF04E000F0AFF8204600F041F9E3
:101F5000257720680169C943C90617D4C168C943F8
:101F6000C90613D46FF010010161082020772068A2
:101F7000C06910F4407F204602D0FFF791FF04E0D3
:101F800000F092F8204600F024F9257720680169D6
:101F9000C943C90708D1C168C943C90704D1891E0B
:101FA0000161204600F07AF920680169C9430906F9
:101FB00009D4C168C943090605D46FF080010161E5
:101FC0002046FFF73CFD20680169C943490609D452
:101FD000C168C943490605D46FF04001016120463C
:101FE00000F0F2F920680169C94389060BD4C16881
:101FF000C943890607D46FF0200101612046BDE87E
:102000007040FFF71DBD70BD70B586B00446142149
:102010006846FEF7A0F9204B226800241F490226DB
:1020200001251F489A4221D10A6842F001020A6044
:102030000A6802F0010205920A6842F002020A6090
:10204000096801F0020105914FF460710091CDE93A
:1020500001646946CDE90345FEF744FC0095CDE9EE
:10206000016469460F48CDE9034510E0B2F1804FA5
:102070000FD10A6842F001020A6009680095CDE9B3
:10208000016401F00101CDE9045103946946FEF7B2
:1020900029FC06B070BD000000000140303802404D
:1020A0000000024000040240704770B5044690F8FA
:1020B0003C0000260D4601280FD0012084F83C008A
:1020C0006AB1042A1DD0082A2FD00C2A3FD001263D
:1020D000002084F83C00304670BD022070BD2068AE
:1020E00001F0CEFB2068816941F008018161206820
:1020F000816921F004018161206881692A691143A5
:1021000011E0206801F0ECFB2068816941F4006176
:1021100081612068816921F4806181612068816921
:102120002A6941EA02218161D2E7206801F00EFCB0
:102130002068C16941F00801C1612068C16921F0CE
:102140000401C1612068C1692A69114311E0206856
:1021500001F030FC2068C16941F40061C161206870
:10216000C16921F48061C1612068C1692A6941EABD
:102170000221C161ACE710B5040003D094F83D0022
:1021800010B107E0012010BD002084F83C0020467B
:1021900000F01EF8022084F83D00211D206801F0A7
:1021A000DFFA012084F8460084F83E0084F83F00FE
:1021B00084F8400084F8410084F8420084F8430029
:1021C00084F8440084F8450084F83D00002010BDE8
:1021D0007047704710B50446022249B104290ED059
:1021E000082913D094F84100012816D0012010BD11
:1021F00094F83E000128F9D184F83E200FE094F8CD
:102200003F000128F2D184F83F2008E094F8400014
:102210000128EBD184F8402001E084F8412001221C
:10222000206801F001FB16492068164A884201D057
:10223000904203D1436C43F40043436420688842D6
:1022400013D0B0F1804F10D00F4988420DD00F4904
:1022500088420AD00E49884207D0904205D00D49E5
:10226000884202D00C49884204D1816801F00701FC
:10227000062903D0016841F001010160002010BD72
:10228000000001400004014000040040000800403C
:10229000000C004000400140001800402DE9F041D2
:1022A000434906462DED028B002500680968414C24
:1022B0004FF4FA77884244D1A06A401CA062E16AD8
:1022C000491CE162B84220D14FF400513A48FEF770
:1022D00006FC206CB0F5E17F13DAD4ED090A94ED29
:1022E000130A01F007F9B0EE408AF0EE608A206C24
:1022F00001F0B9FF53EC182B01F0DEFE01F084FF72
:102300002064002800DA2564A562E06A0A2818D152
:102310008A212A4800F0A6FC84ED060A8A21274873
:1023200000F0C6FC84ED070A4021244800F09AFC26
:1023300084ED080A4021214800F0BAFC84ED090A26
:10234000E5621F493068096888422BD1636B1D48DC
:102350005B1C6363A16B40F2E242491CA163BB4278
:102360000CD1E36B23B1032B05D0012B0CD004E07F
:1023700003685D6301E003685A636563642911D1F2
:10238000E16B022906D00CE0236BDB432363012BB6
:10239000F1D0EDE7216BC94321630068012905D025
:1023A0004563A563BDEC028BBDE8F0814263F8E7AD
:1023B000B801002000000020000802407C0000203E
:1023C00000020020700100207047704710B50446DD
:1023D0000068406994F83D10C0F3C010212911D164
:1023E00080B12068143050E8001F21F0800140E8DF
:1023F0000012002AF5D1606B08B1FEF778F820468C
:1024000001F0EBFB2068406994F83E10C0F38010A7
:10241000222911D180B12068143050E8001F21F02A
:10242000400140E80012002AF5D1A06B08B1FEF788
:102430005EF8204601F0AAFB002010BD70470000A6
:10244000F8B5016804460868CA684B6910F00F0FB8
:102450004FF0000559D003F0010602F4907737439E
:1024600065D0C10705D0D10503D5216C41F001012C
:102470002164410705D5D90703D0216C41F0020141
:102480002164810705D5D90703D0216C41F00401EF
:102490002164010707D502F02001314303D0216CEC
:1024A00041F008012164216C00293AD0800604D54E
:1024B000900602D5204601F09EFB20684069216C01
:1024C000C0F38010090700D460B3204601F05EFB22
:1024D00020684069400621D52068143050E8001F6C
:1024E00021F0400140E80012002AF5D1A06BA8B10C
:1024F0006C490165A06BFEF743F8002811D0A06B72
:10250000016D01B0BDE8F040084783060FD5930682
:102510000DD52046BDE8F84001F06DBB2046FFF721
:102520008DFFF8BD2046FFF789FF2564F8BD266BB7
:102530002023012E79D1C60677D5D60675D5086831
:10254000486800904869400640D5A16B086840681B
:102550000004000CEAD0A28D8242E7D9E085C86968
:10256000B0F5807F2DD020680C3050E8001F21F49A
:10257000807140E80012002AF5D12068143050E83C
:10258000001F21F0010140E80012002AF5D1206867
:10259000143050E8001F21F0400140E80012002AEA
:1025A000F5D184F83E30256320680C3050E8001FD8
:1025B00021F0100140E80012002AF5D1A06BFDF7D0
:1025C00096FFA08DE18D401A81B229E0A08DE18DAA
:1025D000401A81B2E08D0028A8D00029A6D020683A
:1025E0000C3050E8002F22F4907240E80026002EB4
:1025F000F5D12068143050E8002F22F0010240E8A5
:102600000026002EF5D184F83E30256320680C307A
:1026100050E8002F22F0100240E80023002BF5D1F3
:102620002046FFF7D2FEF8BDFFE705062BD51506BD
:1026300029D594F83D002128F5D1A068B0F5805F38
:1026400001D12069B0B1206A411C21622168007863
:102650004860E08C401E0004000CE084E3D1206858
:10266000C16821F08001C1602068C16841F040016B
:10267000C160D8E7206A0088C0F308004860206A7B
:10268000801C2062E5E74006CDD55006CBD5CA6850
:10269000204622F04002CA6084F83D3000F006F97E
:1026A000C1E700004B3A000870B5040004D094F86C
:1026B0003D00002510B106E0012070BD84F83C50BB
:1026C000204600F023F8242084F83D002068C168EB
:1026D00021F40051C160204601F0EEFA2068016942
:1026E00021F4904101612068416921F02A01416192
:1026F0002068C16841F40051C1602564202084F83D
:102700003D0084F83E00002070BD00002DE9F0413E
:1027100086B0064614216846FDF71DFE2F49306835
:10272000884258D12E480024016841F01001016010
:10273000006800F01000059029481438016841F045
:10274000020101600068694600F002000590C020A7
:1027500000900220CDE9010403200390072004909B
:102760002048FEF7BFF8214D1F484FF00067286052
:10277000C5E901744FF48068C5E903486C61AC6138
:10278000EC612C6228466C62FDF7DCFF08B1FDF7B6
:10279000ACFEB563AE63154D134860357830E5E89F
:1027A00002074020A5E81101104845F8144960309F
:1027B000AC61EC612C626C62FDF7C4FF08B1FDF7FF
:1027C00094FE7563002211462520AE63FEF782FC5D
:1027D0002520FEF771FC06B0BDE8F0810010014035
:1027E0004438024000040240406402408C02002051
:1027F00090F83E30202B0ED159B152B190F83C30B8
:10280000012B08D0012380F83C300023036301F042
:10281000D9BA012070470220704770477047000006
:1028200070B5044690F83D00202836D191B38AB3A4
:1028300094F83C00012830D0012084F83C0021624B
:10284000A284E28400252564212084F83D00636B86
:102850001348D863636B13481864636B1248D864D9
:10286000606B134605652668606B321DFDF7D4FF6B
:1028700021686FF04000086084F83C5020681430F4
:1028800050E8001F41F0800140E80012002AF5D115
:10289000002070BDFFE70120FBE70220F9E7000000
:1028A000413B0008833B00085B3A000870477047D3
:1028B000FEE701684A69D24352050FD46FF4806283
:1028C0004A61002140F8301F20224273817302695F
:1028D00042F004020261017301207047002070473A
:1028E0002DE9F84F0446C06A1E4693460D462168FE
:1028F0000A6842F480620A60082807D0012805D0DF
:1029000010F5803F02D0206B112804D120680168A7
:1029100041F4807101604FF001195B460022494685
:102920002046009600F0C6F84FF4007840B12068C9
:102930000068C00501D5C4F840800320BDE8F88FC9
:102940002069DFF884A0B0F5804F0FD00620216801
:1029500000EAD51747F0F000086133465A460AF1FD
:102960000601204600F0DAF858BB03E0E8B240F078
:1029700001001CE02168E8B2086133465A4651461E
:10298000204600F0CBF8E0B92068416981690091E8
:10299000016841F4807101605B460022494620468F
:1029A000009600F087F80028C1D147F0F1002168B7
:1029B000086133465A465146204600F0AFF80028D9
:1029C000BCD00120BAE7000002000100F8B50446BF
:1029D000C06A1E460D461746082807D0012805D0B4
:1029E00010F5803F02D0206B122804D120680168C6
:1029F00041F480710160134600224FF0011120461E
:102A0000009600F057F840B120680068C00502D574
:102A10004FF4007020640320F8BD2069B0F5804FAA
:102A20000ED00620216800EAD51040F0F0000861C1
:102A300033463A460B49204600F070F878B902E078
:102A400005F0FE0000E0E8B2216808610549334660
:102A50003A46891F204600F061F80028DCD00120AA
:102A6000F8BD00000800010070B516460D4604468A
:102A70000DE02046FFF71DFF08B1012070BD681C66
:102A800005D0FEF739F8801BA84207D835B1206879
:102A90004069C0434007ECD4002070BD002044F8DA
:102AA000300F20216173A073216941F02001216161
:102AB0002073E2E72DE9F0471E4690460D46044696
:102AC000C1F30747DDF8209008E0701C06D0FEF740
:102AD00013F8A0EB0900B0420FD876B12068012F9F
:102AE00018D0806925EA00000004000C14D00021F1
:102AF0004145EAD00020BDE8F087002044F8300FBF
:102B000020216173A073216941F0200121612073AC
:102B10000120F0E74069E5E70121E9E72DE9F04709
:102B20009A4691460E46044600254FF02008C1F310
:102B3000074725E020684069C043400514D4206859
:102B4000016841F40071016021686FF480604861A0
:102B5000256384F83D8084F83E50206C40F00400EA
:102B6000206484F83C501FE0B9F1FF3F08D0FDF726
:102B7000C3FFA0EB0A0149450CD8B9F1000F09D0F9
:102B80002068012F13D0806926EA00000004000CA1
:102B90000BD0CFE744F8305F84F80D80A57320692F
:102BA00040F02000206125730120BDE8F0874069D6
:102BB000EAE72DE9F041002590460E46044620271D
:102BC00017E04069C043C0060CD454F8301B6FF0C6
:102BD0001000486144F810596777A577206A206291
:102BE000257717E0FDF788FFA0EB0800B04208D872
:102BF0003EB120684169C9434906E2D40020BDE8DE
:102C0000F08144F8305F6773A573206940F02000BD
:102C1000206125730120F2E770B516460D46044683
:102C20000DE02046FFF745FE08B1012070BD681C8D
:102C300005D0FDF761FF801BA84207D835B1206899
:102C40004069C0430006ECD4002070BD002044F869
:102C5000300F20216173A073216941F020012161AF
:102C60002073E2E710B500F005F800EE100AB8EEA8
:102C7000400A10BDFEB506460CA00A2400680D46A9
:102C8000CDE90040012301AA3046FEF7EFF8022308
:102C900002AA294630460094FDF7F8FF08B1FF204C
:102CA000FEBDBDF8080040BAFEBD000002000000F5
:102CB00010B500F009F800EE100AF0EE000AB8EEC8
:102CC000400A20EE200A10BDFEB506460CA00A24DC
:102CD00000680D46CDE90040012301AA3046FEF709
:102CE000C5F8022302AA294630460094FDF7CEFF1C
:102CF00008B1FF20FEBDBDF8080040BAFEBD0000CF
:102D0000040000001CB505238DF80430130A8DF86B
:102D100005308DF806200A220092032301AAFEF74F
:102D2000A5F81CBD1CB500238DF80430130A8DF8DE
:102D300005308DF806200A220092032301AAFEF72F
:102D400095F81CBD0D4808B5016841F4800101608B
:102D50000068002200F48000009011463A20FEF73F
:102D6000B9F93A20FEF7A8F9002211464620FEF7ED
:102D7000B1F9BDE808404620FEF79EB93038024060
:102D80002DE9F04186B014216846FDF7E4FA3C488D
:102D90000024016841F004010160016801F00401B0
:102DA0000591016841F080010160016801F0800136
:102DB0000591016841F001010160016801F0010124
:102DC0000591016841F002010160016801F0020112
:102DD0000591016841F0080101600068DFF8A480F6
:102DE00000F008004FF46045059000222946404657
:102DF000FDF77DFE244F4FF4A046002231463846B1
:102E0000FDF775FE00950125CDE901546946404660
:102E10000394FDF767FD032000904FF48810CDE97F
:102E2000010569464046FDF75DFD0096CDE9015478
:102E3000694638460394FDF755FD4FF4E0508DE8A0
:102E4000310069464046FDF74DFD04208DE8310014
:102E500069460E48FDF746FD002211460620FEF7A2
:102E600039F90620FEF728F9002211460720FEF75F
:102E700031F90720FEF720F906B0BDE8F081000027
:102E8000303802400008024000040240000C0240BA
:102E90000D4810B50B4901600C49416000214FF409
:102EA00080428160C0E9031241618161C1610162B8
:102EB000FDF728FE002803D0BDE81040FDF715BB44
:102EC00010BD0000005400407C000020A0860100DE
:102ED0000F4810B50D4901604FF482714160002127
:102EE0008160C1604FF400720161C0E90512C161E7
:102EF0000162416281620A21C162FEF73DFC002845
:102F000003D0BDE81040FDF7F0BA10BD0038004016
:102F1000D000002010B596B000240F9410941194A6
:102F2000129413941C2168461494FDF714FA20217E
:102F300007A8FDF710FA2D482B4901600621C0E9CA
:102F4000011440F2DF11C0E9031444618461FEF70B
:102F50004BFE08B1FDF7C9FA4FF480500F900FA94E
:102F60002248FEF72FFF08B1FDF7BFFA1F48FFF711
:102F700002F908B1FDF7B9FA139413A91B48149488
:102F8000FEF78AFD08B1FDF7B0FA6020CDE9000434
:102F9000029403940494059400226946134806940D
:102FA000FFF783F808B1FDF7A0FA042269460F483D
:102FB000FFF77BF808B1FDF798FA079432200894E0
:102FC000CDE909404FF40050CDE90B4007A907486F
:102FD0000E94FEF736FD08B1FDF787FA0348FFF7B8
:102FE00013F816B010BD00000000014028010020B9
:102FF00010B58EB000240794089409940A940B9499
:103000001C2168460C94FDF7A6F91E484FF080413C
:103010000160A721C0E9011440F6C311C0E90314FF
:103020008461FEF7E1FD08B1FDF75FFA4FF48050CF
:10303000079007A91348FEF7C5FE08B1FDF755FA3A
:103040001048FFF798F808B1FDF74FFA0B940BA959
:103050000C480C94FEF720FD08B1FDF746FA6020FD
:10306000CDE9000402940022694606480494FFF763
:103070001CF808B1FDF739FA0248FEF7C5FF0EB09B
:1030800010BD00007001002010B586B00024174864
:1030900000940194029403940494134905940160EC
:1030A000A721C0E9011440F2E731C0E903148021EF
:1030B0008161FEF799FD08B1FDF717FA4FF48050D2
:1030C000009069460948FEF77DFE08B1FDF70DFA4C
:1030D000049404A905480594FEF7DEFC002801D0FD
:1030E000FDF703FA06B010BD00040040B80100204F
:1030F0001CB500240F4800940D4901940160A721DC
:10310000C0E9011440F2E731C16080218161FEF71E
:103110006BFD08B1FDF7E9F9009469460548019493
:10312000FEF7BAFC002801D0FDF7DFF91CBD000056
:1031300000140040000200200C4810B50A4901604C
:103140004FF4E1314160002181600C22C160C0E98F
:1031500004128161C161FFF7A7FA002803D0BDE81E
:103160001040FDF7C2B910BD001001404802002018
:10317000FEE7FEE730B40021084B0A465FF000008E
:1031800003EBC004401CC0B262548028F8D3491C31
:10319000C9B20829F2D330BC00F096B84C03002025
:1031A00030B5CC0801F0070301259D40EBB2064D78
:1031B00005EBC005C808285C0AB1184302E063EAC1
:1031C0000000C043285530BD4C03002010B500213D
:1031D000AE2000F067F90021084600F063F90021F5
:1031E000102000F05FF90021402000F05BF9002181
:1031F000812000F057F90021CF2000F053F9002181
:10320000A12000F04FF90021C82000F04BF9002167
:10321000A62000F047F90021A82000F043F9002182
:103220003F2000F03FF90021D32000F03BF90021BE
:10323000084600F037F90021D52000F033F90021CD
:10324000802000F02FF90021D92000F02BF9002177
:10325000F12000F027F90021DA2000F023F9002105
:10326000122000F01FF90021DB2000F01BF90021E3
:10327000402000F017F90021202000F013F9002170
:10328000022000F00FF900218D2000F00BF9002141
:10329000142000F007F90021A42000F003F9002118
:1032A000A62000F0FFF8FFF765FF0021BDE8104001
:1032B000AF2000F0F7B80246012000E05043491E5D
:1032C000C9B2FBD27047000070B5114E002400BF98
:1032D00004F1B000C0B2002100F0E4F8002108467B
:1032E00000F0E0F80021102000F0DCF85FF00005AD
:1032F00006EBC5000121005D00F0D4F86D1CEDB2B5
:10330000802DF5D3641CE4B2082CE1D370BD00001D
:103310004C0300202DE9FC4F1C460E4682468B468E
:103320000190082B0ED0600700D0012000EBD400E4
:10333000610810FB01F0C0B28146203AD0B2009083
:1033400000204AE00620F7E7082C12D00C2C17D0FA
:10335000102C1AD0182C43D10098234900EBC00040
:1033600001EB8001002711F80850E80712D00B9AF2
:1033700013E000981D4900EB400001EB4001F1E72C
:1033800000981B4900EB4000EAE71A49009801EB5E
:103390000011E7E70B9828B3002231465046FFF7AB
:1033A000FFFE761C7F1C6D08FFB2F6B2082FDCD33F
:1033B0000AF1010000F0FF0A082C0AD00199AAEBDB
:1033C0000100B0EB540F04D10BF108008A4600F065
:1033D000FF0B08F101005E46C0B280464845B3D3FA
:1033E000BDE8FC8F0122D8E7A85200081C4600085F
:1033F00044480008B84C00082DE9F84F0025DDE9E5
:103400000A691F4692468B468046082E00D1022547
:1034100000241CE0381B401EC1B20A20FFF74BFFFE
:10342000BAFBF0F00A21B0FBF1F201FB1200CDF87B
:10343000009080B13030C2B205EB560101FB048030
:10344000C0B233465946FFF765FF641CE4B2BC4284
:10345000E0D3BDE8F88F05EB560101FB0480C0B254
:1034600033463022EEE72DE9F8411E4615468846E0
:103470000446079F0BE03346414620460097FFF77E
:1034800049FF082E0AD004EB5600C4B26D1C2A78FE
:10349000A2F120005E28EED9BDE8F881A41DE4B2B7
:1034A000F4E7000073B5114C4FF4805509B10122C7
:1034B00000E0002229462046FDF719FB4FF4804624
:1034C000002231462046FDF712FB0A2301226946FD
:1034D0000748FEF7EDF9012231462046FDF707FBCC
:1034E000012229462046FDF702FB7CBD0004024074
:1034F000D00000201A4810B59FED181A30EE600A6F
:1035000080ED031A174980ED040AD0ED120A30EE5F
:10351000401A70EE800AC0ED120A80ED050AD0ED67
:10352000001A21EE800AD0ED011A01EEA00AD0EDBA
:10353000020A00EE810A10EE100A884204DA10EE48
:10354000100A0949884201D3B2EE040A10EE100AAB
:1035500000F0DEFF41EC100B10BD00000000000089
:10356000000000200000A0410000A0C17047000042
:103570000148FEF783B80000D000002010B5806B32
:103580000021C187C186FEF777F810BD38B5044623
:103590001248134B0068B0FBF3F04FF47A735843B2
:1035A00000906068B0F5827F0DD10B46009200223A
:1035B0008021204600F016F870B1606D40F02000C8
:1035C0006065032038BD009830B1401E009020682F
:1035D0008068C0430006F6D5002038BD6400002096
:1035E00000366E012DE9F8431E4691468846044692
:1035F000089DFDF781FA401B351AFDF77DFA074655
:1036000025480068C0F3CB30684338E0701C37D0E1
:10361000FDF772FAC01BA84203D215B1009860B33F
:103620002CE02068416821F0E00141606068B0F55D
:10363000827F0BD1A068B0F5004F02D0B0F5806F4B
:1036400004D12068016821F040010160A06AB0F552
:10365000005F09D12068016821F4005101602068F1
:10366000016841F400510160012084F851000020FC
:1036700084F850000320BDE8F8830025401E009028
:103680002068816838EA010004D000214945BDD195
:103690000020F0E70121F9E7640000207047FDF702
:1036A000B1BC000030B593B030216846FCF753FE42
:1036B00014210CA8FCF74FFE1D480025016841F0BD
:1036C00080510160006800F0805011901948016835
:1036D00041F4804101600068022400F480401190B0
:1036E0000120039010200490009406940820CDE956
:1036F0000750A820CDE9090404200B906846FDF787
:1037000005FE08B172B6FEE70CA90F2081E8310072
:103710004FF4A0500F904FF48050109005210CA84A
:10372000FDF70AFD002801D072B6FEE713B030BDE8
:1037300040380240007000400248016841F47001C6
:103740000160704788ED00E00148FEF7AABB000069
:10375000B80100200148FEF7A4BB000000020020D1
:10376000F0B50268254C264D264E274F274B4FF0CB
:10377000804CA04209D0604507D0A84205D0B04295
:1037800003D0B84201D0984204D122F0700E4A68AA
:1037900042EA0E02A0421BD0604519D0A84217D0C1
:1037A000B04215D0B84213D0984211D0184DA8425B
:1037B0000ED0184DA8420BD0174DA84208D0174D77
:1037C000A84205D0164DA84202D0164DA84203D1FA
:1037D00022F44075CA682A434D6922F080022A43C8
:1037E00002608A68C2620A688262A04201D098427E
:1037F00001D10969016301214161F0BD000001406F
:103800000004004000080040000C0040000401409B
:1038100000400140004401400048014000180040C1
:10382000001C00400020004010B501F01F030121E2
:10383000046A99408C430462016A9A401143016210
:1038400010BD10B501F01F030421046A99408C4398
:103850000462016A9A401143016210BD10B5846888
:1038600042EA032224F47F440A432243826010BDCB
:10387000826822F070020A4342F0070181607047BB
:10388000F0B5026A22F001020262036A42688469AA
:10389000124E24F073050C682C4323F002058B684C
:1038A0002B430D4DA84201D0B04205D123F00807AB
:1038B000CB683B4323F00403A84201D0B04205D1BA
:1038C0004D6922F4407215438A692A43426084613B
:1038D000496841630362F0BD0000014000040140FB
:1038E000F0B5026A22F010020262026A436884693B
:1038F0000D6824F4E64444EA05248D6822F0200291
:1039000042EA05120F4D104EA84201D0B04206D136
:10391000CF6822F0800242EA071222F04002A84259
:1039200001D0B04207D14D6923F4406343EA8503D7
:103930008D6943EA8503436084614968816302625B
:10394000F0BD00000000014000040140F0B5026A33
:1039500022F480720262026A4368C46922F400722F
:1039600024F073050C68124E2C438D6842EA052240
:103970000E4DA84201D0B04206D1CF6822F40062B9
:1039800042EA072222F48062A84201D0B04207D165
:103990004D6923F4405343EA05138D6943EA051347
:1039A0004360C4614968C1630262F0BD0000014028
:1039B0000004014030B5026A22F480520262046AB7
:1039C0004268C3690D6823F4E64343EA05238D6822
:1039D00024F4005444EA0534084DA84202D0084DAE
:1039E000A84204D14D6922F4804242EA8512426025
:1039F000C36149680164046230BD000000000140F9
:103A00000004014010B5036A046A24F00104046252
:103A1000846924F0F00444EA021423F00A020A4301
:103A20008461026210BD10B5036A23F010030362C3
:103A30008369046A23F4704343EA023224F0A0034A
:103A400043EA01118261016210BD10B5806B002153
:103A5000C185C184FEF7F2FC10BD70B5846B20688F
:103A6000406994F83D10C0F3C0100025212904D10D
:103A700018B1E584204600F0B0F82068406994F859
:103A80003E10C0F38010222904D118B1E5852046EC
:103A900000F07CF8206C40F0100020642046FEF717
:103AA000CDFC70BD10B50146806B09680968C90579
:103AB0002FD40021C18501680C3151E8002F22F478
:103AC000807241E80023002BF5D10168143151E8E0
:103AD000002F22F0010241E80023002BF5D10168FC
:103AE000143151E8002F22F0400241E80023002B5E
:103AF000F5D1202180F83E10016B012909D1016820
:103B00000C3151E8002F22F0100241E80023002B75
:103B1000F5D1016B012902D0FEF77FFE10BD818D2A
:103B2000FEF753FC10BD10B5806B016B012902D06C
:103B3000FEF774FE10BD818D4908FEF746FC10BDEE
:103B400010B50146806B09680968C90516D40021C3
:103B5000C1840168143151E8002F22F0800241E84D
:103B60000023002BF5D101680C3151E8002F42F001
:103B7000400241E80023002BF5D110BDFEF796FE70
:103B800010BD10B5806BFEF792FE10BD01680C31C0
:103B900051E8002F22F4907241E80023002BF5D168
:103BA0000168143151E8002F22F0010241E800239E
:103BB000002BF5D1016B012909D101680C3151E8C5
:103BC000002F22F0100241E80023002BF5D1202124
:103BD00080F83E1000210163704701680C3151E804
:103BE000002F22F0C00241E80023002BF5D1202154
:103BF00080F83D10704708B590F83E10222901D09A
:103C0000022008BD82684FF480539A4201D10169B5
:103C100021B1816A9A421BD04AB10AE00268816AE6
:103C20005268C2F308020A80816A891C08E00269AE
:103C300072B10268526802F07F020A70816A491C00
:103C40008162C18D491E0904090CC18503D019E0A8
:103C500002685268F1E70168CA6822F02002CA606F
:103C60000168CA6822F48072CA6001684A6922F059
:103C700001024A61202180F83E10016B012903D026
:103C8000FEF7CBFD002008BD0021016301680C3167
:103C900051E8002F22F0100241E80023002BF5D15B
:103CA00001680A68D20602D50A6849680091818DC8
:103CB000FEF78BFBE6E7000070B50446006801697B
:103CC000E26821F44051114301612169A068E26971
:103CD00008436169114308432168CA6849F20C63CB
:103CE0009A430243CA6020684169A26921F4407185
:103CF0001143416131492068884202D030498842ED
:103D000002D1FDF7C3FA01E0FDF7B0FAE269002342
:103D1000192164253226B2F5004F626828D0A0FB35
:103D20000101930F9200FCF79FFA0146B0FBF5F0FA
:103D30006FF01802504301EB800006EB0010B0FB5F
:103D4000F5F000F0F002B1FBF5F002EB0012B1FB70
:103D5000F5F06FF01803584301EB800006EB0010FC
:103D6000B0FBF5F000F00F0021681044886070BDD2
:103D7000A0FB010192185B41FCF776FA0146B0FB0B
:103D8000F5F00201B1FBF5F06FF01803584301EBB9
:103D9000800006EBC000B0FBF5F000F0F80002EB8D
:103DA0004002B1FBF5F0584301EB800006EBC00088
:103DB000B0FBF5F000F00700D6E70000001001406E
:103DC0000014014038B581628285002513460446FF
:103DD0000564222084F83E00A26B1C48D063A26BCD
:103DE0001B481064A26B1B48D064A06B0A46056593
:103DF0002168A06B091DFCF70FFD20680168406871
:103E0000009084F83C50206948B120680C3050E89C
:103E1000001F41F4807140E80012002AF5D12068AB
:103E2000143050E8001F41F0010140E80012002A60
:103E3000F5D12068143050E8001F41F0400140E8FF
:103E40000012002AF5D1002038BD0000A53A000874
:103E5000273B00085B3A00080D4808B50068016878
:103E6000C943C9060FD40168406800900848FEF7AE
:103E7000ADFA142207490648FEF7D2FC1422054980
:103E80000348FEF7B5FCBDE808400148FEF7D8BA84
:103E90004802002068000020FEE70907090E0028FC
:103EA00004DB00F1E02080F80014704700F00F0000
:103EB00000F1E02080F8141D704700001CB5FDF7EC
:103EC000A9F8FFF7EFFBFEF75BFFFEF73BFFFEF7FE
:103ED000DFFFFEF7FDFFFFF72FF9FFF71BF8FFF7F6
:103EE00087F8FFF7D1F8FFF703F9DFF898914FF45F
:103EF0000058012241464846FCF7F9FD4FF4804A3C
:103F0000012251464846FCF7F2FD4FF4004B0122D6
:103F100059464846FCF7EBFDFFF758F90A20FCF735
:103F2000B3FCFFF727F901260021102356A208460B
:103F30000096FFF798FAFFF7C7F956480068C1687E
:103F400041F01001C160142253495248FEF750FC61
:103F500044F2C75422468A215048FEF7E3FE00EEA1
:103F6000100A4F4D4FF42067B8EE400A3A468A21B6
:103F700085ED110A4948FEF7C5FE22464021474813
:103F8000FEF7D0FE00EE100A3A464021B8EE400A95
:103F9000424885ED110AFEF7B5FEB1024846FCF72E
:103FA00099FD05F15004F10220804846FCF792FD8E
:103FB000608031034846FCF78DFDA080042139481C
:103FC000FCF788FDE0801027CDE9007622880123E8
:103FD00011210020FFF710FACDE900766288012355
:103FE00011210A20FFF708FACDE90076A288012303
:103FF00011211420FFF700FACDE90076E2880123B1
:1040000011211E20FFF7F8F9FFF75EF92648FDF7AA
:1040100099FE2648FDF796FE2548FDF757FE00213C
:104020002348FEF7D7F82348FDF750FE002121482A
:10403000FEF7D0F800211F48FDF776FD04211D484A
:10404000FEF7C8F804211B48FDF76EFD194C00204F
:104050002168486321688863024641464846FCF768
:1040600046FD002251464846FCF741FD00225946D4
:104070004846FCF73CFD286C21684863216888634A
:10408000FAE70000000802405375706572436170E2
:104090003A00000048020020680000207C00002058
:1040A00000000020000C0240B801002000020020A7
:1040B000700100202801002010B591EA030F48BFCD
:1040C00083F0004300F14281841A71EB030C05D2A6
:1040D000121943EB0C03001B61EB0C01DFF824E128
:1040E0004FEA1154A4EB135C1EEA430F18BF9EEA7B
:1040F000445F73D023EA0E03DCF1200E21EA045161
:1041000043F4801332D322FA0CFE10EB0E0023FA94
:104110000CFE41EB0E01CCF1200E03FA0EFE10EB6B
:104120000E0051F10001B1F5801FCCF1200E32D20A
:1041300001EB045112FA0EF2BDE8104058BF70476F
:10414000401C38BF5FEA420218BF7047002814BF06
:1041500020F0010041F100014FEA410313F5001F77
:1041600038BF7047A1F1C04100F0E2B8012A43EB2B
:104170000302ACF1200CDCF11F0E32BF4FF0000E39
:1041800023FA0CF310EB030041EB0451B4EB115F85
:10419000D0D0A1EB045101F5801149085FEA30004D
:1041A00001EB04510ED350F1000038BF12FA0EFE9D
:1041B00008D1BDE81040C9E7401C38BF5FEA4202A1
:1041C000CAD1C3E7BDE810404FEA410313F5001F11
:1041D00038BF7047A1F1C04100F0AAB89EEA445F21
:1041E00008D011EA5E0FBDE8104004BF01F00041A5
:1041F00000207047BDE8104070B500F04BF800BFDC
:1042000064FBBE3E0000E0FF4FEA41034FEA535318
:10421000A3F58063D3F11E03C8BFD3F1210C0CDDDD
:104220004FF0004242EAC12242EA505232FA03FC05
:104230008CEAE17CACEBE1707047102BC4BF00202E
:10424000704703F5787CBCF1FF3F04D06FF000426B
:1042500082EA2100704770B500F01CF84992248072
:1042600000207047F2E710F0004248BF4042B0FA29
:1042700080F310FA03F10AD0C3F11D0303F5806344
:104280004FEA415002EB035202EBD12170474FF04D
:10429000000070470EF1020E2EF0030E5EF8046B64
:1042A000364205D4012A43EB030515F5001F12D849
:1042B000012841EB010C1CF5001F0CD80ED14FEA70
:1042C000D17C15F5001F0CEB4C0C0CF1020C08BF57
:1042D0004CEBD37C04E04FF0080C01E04FEAD37CB8
:1042E0000CEB4C0526FA05F606F00706B6F1040CB1
:1042F00006D20EEB860CBDE870404CF0010C604716
:10430000DFE80CF0090B02024FF000414FF0000013
:10431000A1F5002170BD19461046012851EB01049A
:1043200018BFD4F5001484BF002001F0004170BD17
:104330000808A0F500114FEA3101704710B591EA65
:10434000030F48BF83F000433FF5BEAE841A71EB04
:10435000030C07D212198CF0004C43EB0C03001B2A
:1043600061EB0C01DFF8A4E14FEA1154A4EB135CFC
:104370001EEA430F18BF9EEA445F00F0B08023EAB4
:104380006E03524221EA0451C3EB6E0338BF5B1E39
:10439000DCF1200E25D322FA0CFE10EB0E0043FABE
:1043A0000CFE41EB0E01CCF1200E03FA0EFE10EBD9
:1043B0000E0051F10001CCF1200E29D412FA0EF2B8
:1043C00001EB0451BDE8104058BF7047401C1CBFB2
:1043D000B2F1004F704700280CBF491C20F00100CB
:1043E000704712EB020E43EB030218BF4FF0010EB1
:1043F0004EEA4202ACF1200CDCF11E0E54D943FA15
:104400000CFE10EB0E0051F1FF31CCF11E0ED5D594
:104410000EF1010E12FA0EFE404141EB010101EBDB
:10442000445C5FEA5C5C10D910EBDE7001EB045178
:1044300038BFBEF1004FBDE8104018BF70470028DC
:104440000CBF491C20F00100704730D24FEAD42C39
:1044500011F5001124F400641BD0B1FA81F20B3A7B
:10446000A41AA41ED2F12003914030FA03F3194399
:10447000904001EBCC71002C01EB0451BDE81040E1
:10448000A8BF704701F1C0414FF0000001F00041AA
:104490007047B0FA80F310FA03F100D110BDE41AAE
:1044A000173C4805C90AE4E701EB045110BD491067
:1044B00001EB0451BDE810404FEA300002E04FF03C
:1044C000000170474A0008BF0042F8D0B2F5001F53
:1044D00028BF704701F000414FF0000070479EEA8E
:1044E000445F07D011EA5E0FBDE8104004BF002111
:1044F00000207047BDE8104070B5FFF7CBFE00BF4D
:1045000040DFF63E83F00041104670470000E0FFB8
:1045100043004FEAD30C4FEA3C0C43401FBF400717
:104520000CF1605113F0FE4F70471CF0006F03D187
:1045300000200CF0004170470CF0004343EA50703B
:1045400010B540EACC0000F00EF800BF0000009269
:104550004FEA0001FFF7ECBE4FF000414FF00000C2
:10456000A1F5002170470EF1020E2EF0030E5EF849
:10457000044B244204D44FEA4102B2F17F4F11D8D8
:104580004FEA4003B3F17F4F0CD80ED14FEAD07CF5
:10459000B2F17F4F0CEB4C0C0CF1020C08BF4CEB52
:1045A000D17C04E04FF0080C01E04FEAD17C0CEB29
:1045B0004C0324FA03F404F00704B4F1040C06D20B
:1045C0000EEB840CBDE810404CF0010C6047DFE8B6
:1045D0000CF0070802024FF00040A0F5800010BD6B
:1045E0000846420018BFD2F1807288BF00F0004038
:1045F00010BD4FF04070E1EE100A70470006101633
:104600000006101600000000000000000102030474
:104610000607080900000000010203040000000072
:1046200000000000002F0000000007000700001439
:104630007F147F1400242A7F2A1200626408132347
:1046400000364955225000000503000000001C22DE
:104650004100000041221C000014083E081400081C
:10466000083E0808000000A06000000808080808CC
:10467000000060600000002010080402003E514964
:10468000453E0000427F4000004261514946002102
:1046900041454B31001814127F100027454545391C
:1046A000003C4A4949300001710905030036494977
:1046B000493600064949291E000036360000000030
:1046C000563600000008142241000014141414147B
:1046D0000000412214080002015109060032495924
:1046E000513E007C1211127C007F49494936003E40
:1046F00041414122007F4141221C007F49494941FB
:10470000007F09090901003E4149497A007F0808F4
:10471000087F0000417F4100002040413F01007FB1
:1047200008142241007F40404040007F020C027F7D
:10473000007F0408107F003E4141413E007F09098F
:104740000906003E4151215E007F091929460046B5
:10475000494949310001017F0101003F4040403F8C
:10476000001F2040201F003F4038403F00631408D6
:1047700014630007087008070061514945430000B1
:104780007F41410000552A552A55000041417F00D4
:1047900000040201020400404040404000000102C9
:1047A0000400002054545478007F484444380038B2
:1047B0004444442000384444487F0038545454183A
:1047C00000087E0901020018A4A4A47C007F08044C
:1047D00004780000447D4000004080847D00007F1C
:1047E000102844000000417F4000007C0418047839
:1047F000007C0804047800384444443800FC242435
:1048000024180018242418FC007C0804040800481C
:104810005454542000043F444020003C4040207C3D
:10482000001C2040201C003C4030403C004428102C
:104830002844001CA0A0A07C004464544C441414E0
:104840001414141400000000000000000000000018
:104850000000FC000000000002000000000C020C40
:10486000020000000000000090D0BCD0BC9000030B
:10487000000300001824FE448C000302070201001C
:104880001824D8B04C80000300010201C038E4387D
:10489000E000010202010202080600000000000020
:1048A00000000000000000F8040200000001020403
:1048B000000204F800000004020100009060F860AB
:1048C00090000000010000002020FC2020000000DB
:1048D00001000000000000000000080600000000C9
:1048E0002020202020000000000000000000000028
:1048F00000000002000000000080601C02000403B1
:1049000000000000F8040404F800010202020100A3
:104910000008FC0000000002030200001884442488
:10492000180003020202020008042424D800010235
:104930000202010040B088FC800000000003020079
:104940003C242424C400010202020100F824242C87
:10495000C0000102020201000C04E41C040000007B
:1049600003000000D8242424D80001020202010020
:1049700038444444F8000003020201000000100023
:104980000000000002000000000020000000000005
:104990000600000000205088040200000000010210
:1049A00090909090900000000000000000020488A9
:1049B00050200002010000001804C4241800000068
:1049C00002000000F804E494F80001020202020070
:1049D00000E09CF0800002030000030204FC242499
:1049E000D800020302020100F80404040C000102D2
:1049F0000202010004FC0404F800020302020100A8
:104A000004FC24740C0002030202030004FC24745E
:104A10000C00020302000000F0080444CC40000136
:104A20000202010004FC2020FC0402030000030237
:104A30000404FC040400020203020200000404FC5B
:104A4000040406040403000004FC24D00C04020344
:104A50000200030204FC040000000203020202033D
:104A6000FC3CC03CFC0003000300030004FC30C419
:104A7000FC04020302000300F8040404F80001022D
:104A80000202010004FC24241800020302000000BA
:104A9000F8848404F80001020207050004FC246481
:104AA0009800020302000302182424448C0003022D
:104AB000020201000C04FC040C00000203020000CE
:104AC00004FC0000FC04000102020100047C80E000
:104AD0001C040000030000001CE03CE01C0000037C
:104AE00000030000049C609C040002030003020019
:104AF000041CE01C04000002030200000C84641C7F
:104B000004000203020203000000FE020200000093
:104B100007040400000E30C0000000000001020085
:104B2000000202FE0000000404070000000402046A
:104B30000000000000000000000000000000080865
:104B40000808080800000200000000000000000043
:104B50000040A0A0C00000010202030204FC2020CB
:104B6000C00000030202010000C02020600000011C
:104B70000202020000C02024FC0000010202030225
:104B800000C0A0A0C0000001020202000020F82422
:104B900024040002030202000040A0A060200007DD
:104BA0000A0A0A0404FC2020C000020302000302D7
:104BB0000020E4000000000203020000000020E4E6
:104BC000000008080807000004FC80E02020020321
:104BD000020003020404FC000000020203020200BF
:104BE000E020E020C00003000300030020E02020BC
:104BF000C00002030200030200C02020C000000128
:104C00000202010020E02020C000080F0A0201007B
:104C100000C02020E0000001020A0F0820E0402030
:104C200020000203020000000060A0A0200000029B
:104C3000020203000020F820000000000102020030
:104C400020E00020E00000010202030220E02080BA
:104C500060200000030100006080E080600000032D
:104C600000030000206080602000020300030200B7
:104C700020E0208060200808070100000020A060DC
:104C80002000000203020200000020DE02000000FB
:104C900000070400000000FF00000000000F0000FB
:104CA0000002DE20000000040700000002010204F0
:104CB00004020000000000000000000000000000EE
:104CC0000000000000000000000000F800000000EC
:104CD000000000333000000000100C06100C06002D
:104CE000000000000000000040C07840C078400094
:104CF000043F04043F040400007088FC08300000F6
:104D0000001820FF211E0000F008F000E01800004D
:104D100000211C031E211E0000F008887000000006
:104D20001E2123241927211010160E000000000058
:104D30000000000000000000000000E01804020075
:104D4000000000071820400000020418E0000000E6
:104D50000040201807000000404080F080404000E4
:104D60000202010F01020200000000F0000000003A
:104D70000101011F0101010000000000000000000E
:104D800080B0700000000000000000000000000083
:104D9000000101010101010100000000000000000C
:104DA00000303000000000000000000080601804A7
:104DB000006018060100000000E010080810E00084
:104DC000000F102020100F00001010F8000000004D
:104DD0000020203F20200000007008080888700094
:104DE0000030282422213000003008888848300014
:104DF0000018202020110E000000C02010F8000034
:104E000000070424243F240000F8088888080800CC
:104E10000019212020110E0000E0108888180000E1
:104E2000000F112020110E0000380808C8380800B3
:104E30000000003F00000000007088080888700033
:104E4000001C222121221C0000E010080810E000B4
:104E50000000312222110F00000000C0C00000003D
:104E60000000003030000000000000800000000062
:104E7000000080600000000000008040201008005A
:104E80000001020408102000404040404040400023
:104E900004040404040404000008102040800000FE
:104EA0000020100804020100007048080808F00003
:104EB0000000003036010000C030C828E810E000D3
:104EC0000718272423140B000000C038E00000005E
:104ED000203C23020227382008F8888888700000C8
:104EE000203F202020110E00C0300808080838009C
:104EF000071820202010080008F808080810E00013
:104F0000203F202020100F0008F88888E8081000B3
:104F1000203F20202320180008F88888E808100087
:104F2000203F200003000000C030080808380000BF
:104F300007182020221E020008F808000008F808C0
:104F4000203F210101213F20000808F80808000047
:104F50000020203F2020000000000808F80808007A
:104F6000C08080807F00000008F888C028180800F2
:104F7000203F20012638200008F80800000000002B
:104F8000203F20202020300008F8F800F8F8080022
:104F9000203F003F003F200008F830C00008F8081C
:104FA000203F200007183F00E01008080810E0002C
:104FB0000F10202020100F0008F808080808F00043
:104FC000203F210101010000E01008080810E00066
:104FD0000F18242438504F0008F8888888887000FB
:104FE000203F2000030C302000708808080838009B
:104FF0000038202121221C00180808F80808180091
:105000000000203F2000000008F808000008F80811
:10501000001F202020201F000878880000C83808C2
:10502000000007380E010000F80800F80008F8003A
:10503000033C0700073C03000818688080681808D4
:1050400020302C03032C30200838C800C838080052
:105050000000203F2000000010080808C8380800A1
:105060002038262120201800000000FE0202020045
:105070000000007F40404000000C30C000000000F5
:10508000000000010638C00000020202FE0000001D
:10509000004040407F0000000000040202020400C3
:1050A0000000000000000000000000000000000000
:1050B00080808080808080800002020400000000E8
:1050C00000000000000000000000808080800000E0
:1050D0000019242222223F2008F8008080000000CE
:1050E000003F112020110E00000000808080000091
:1050F000000E112020201100000000808088F800A0
:10510000000E112020103F200000808080800000D1
:10511000001F222222221300008080F08888881835
:105120000020203F20200000000080808080800040
:10513000006B94949493600008F8008080800000D5
:10514000203F210000203F200080989800000000B0
:105150000020203F202000000000008098980000E0
:1051600000C08080807F000008F800008080800000
:10517000203F24022D302000000808F80000000025
:105180000020203F202000008080808080808000E0
:10519000203F20003F20003F808000808080000072
:1051A000203F210000203F20000080808080000000
:1051B000001F202020201F00808000808000000031
:1051C00080FFA12020110E00000000808080800060
:1051D000000E112020A0FF80808080008080800051
:1051E00020203F212000010000008080808080007E
:1051F0000033242424241900008080E080800000F3
:105200000000001F2020000080800000008080003F
:10521000001F202020103F208080800000808080A0
:1052200000010E3008060100808000800080808030
:105230000F300C030C300F00008080008080800055
:105240000020312E0E312000808080000080808080
:1052500080818E7018060100008080808080800030
:105260000021302C2221300000000000807C02024E
:1052700000000000003F404000000000FF00000070
:1052800000000000FF0000000002027C800000001F
:105290000040403F0000000000060101020204043B
:1052A00000000000000000000000000000000000FE
:1052B00000000000000000000000000000000000EE
:1052C00000000000000000000000000000000000DE
:1052D00000F0F0F0000000000000000000017F017D
:1052E0000000000000000000001C1C1C000000006A
:1052F00000008060301C8C60301C0C00000000003E
:10530000000000000000000000000000000000009D
:1053100000000000000000E00000000000E00000CD
:105320000086E69F86868686E69F860000011F012E
:10533000010101011F010100000080C06020F82070
:10534000E0C00000000003070C18FF70E1810000BE
:105350000000070F10107F100F0700008060206012
:1053600080000000E02000000F3020309F70DC370C
:105370001030C0000000100E0300071810180700BE
:105380000000C02020E0C0000000000080E01F38C6
:10539000E88703C43C040000070F1810100B070D2A
:1053A0001010080000808C4C380000000000000045
:1053B00000000000000000000000000000000000ED
:1053C000000000000000000000000000000080E07D
:1053D000300804000000000000FEFF010000000093
:1053E000000000000000030F1820400000040830F7
:1053F000E0800000000000000000000001FFFE004F
:1054000000000000004020180F0300000000000012
:10541000000000000000C0000000000000426666BE
:105420003C18FF183C6666420000000000000300C4
:1054300000000000000000000000800000000000EC
:10544000001010101010FF101010101000000000BD
:105450000000030000000000000000000000000049
:10546000000000000000000000000000000000003C
:1054700000808C4C3800000000000000000000009C
:1054800000000000000000000010101010101010AC
:1054900010101000000000000000000000000000DC
:1054A00000000000000000000000000000000000FC
:1054B000000000000000000000001C1C1C00000098
:1054C000000000000000000000000000E0380C00B8
:1054D0000000000080701C03000000000060380E17
:1054E0000100000000000000000080C0602020607B
:1054F000C080000000FEFF010000000001FFFE0070
:105500000001070E181010180E070100000080801F
:1055100080C0E000000000000000000000FFFF006D
:105520000000000000001010101F1F1010100000DD
:105530000080402020202060C08000000003030085
:10554000804020381F070000001C1A19181818186E
:10555000181F00000080C020202060C080000000D4
:10556000000303001010182FE780000000070F1041
:10557000101010180F070000000000000000C0E02D
:10558000F000000000C0B088868180FFFF808000AE
:10559000000000000010101F1F1010000000E0604D
:1055A000606060606060000000003F10080808183C
:1055B000F0E0000000070B101010101C0F0300009B
:1055C000000080C040202020E0C0000000FCFF213F
:1055D0001008080818F0E0000001070C181010105F
:1055E000080F03000000C0E06060606060E06000E1
:1055F000000003000000E0180700000000000000A9
:10560000001F1F00000000000080C060202020203C
:1056100060C080000087EF2C1818303068CF8300FE
:1056200000070F0810101010180F07000000C0C06E
:1056300020202020C0800000001F3F60404040200C
:1056400010FFFE0000000C1C101010080F030000DB
:10565000000000000000000000000000000000004A
:10566000000E0E0E0000000000000000001C1C1CBC
:10567000000000000000000000000000000000002A
:1056800000000000000C0C00000000000000000002
:1056900000583800000000000000000000000080FA
:1056A000402010000000102844820100000000008B
:1056B00000000000000001020408100000000000CB
:1056C000000000000000000000848484848484843E
:1056D000848484000000000000000000000000003E
:1056E00000001020408000000000000000000000CA
:1056F000000001824428100000001008040201008C
:105700000000000000C020201010101030E0C00089
:105710000003030000F010080C0703000000000065
:105720001C1C1C0000000000000000C04060202085
:105730002040C00000FCFF01F00E03C1FE03807F8B
:105740000001070E081111101109040200000000E9
:1057500080E0E000000000000000807C4340477FC4
:10576000F880000010181F1000000000131F1C100C
:1057700020E0E02020202060C080000000FFFF101B
:10578000101010182FE78000101F1F10101010109D
:10579000180F0700000080C0402020202060E0009B
:1057A00000FCFF0100000000000001000001070EE6
:1057B000181010100804030020E0E02020202040F2
:1057C000C080000000FFFF000000000001FFFE009D
:1057D000101F1F10101018080E07010020E0E02015
:1057E000202020202060800000FFFF101010107C7F
:1057F00000000000101F1F101010101010180600DD
:1058000020E0E020202020206060800000FFFF10CA
:105810001010107C00000100101F1F10000000007D
:1058200000000000000080C06020202040E0000058
:1058300000FCFF0100004040C0C140400001070ED5
:10584000181010100F0F000020E0E02000000000F2
:1058500020E0E02000FFFF101010101010FFFF00EC
:10586000101F1F1000000000101F1F10000020203C
:1058700020E0E020202000000000000000FFFF00EA
:105880000000000000001010101F1F10101000007A
:1058900000000000202020E0E02020200000000088
:1058A000000000FFFF0000000060E0808080C07FFB
:1058B0003F00000020E0E020000020A06020200049
:1058C00000FFFF30187CE3C000000000101F1F1015
:1058D000000001131F1C181020E0E0200000000051
:1058E0000000000000FFFF000000000000000000BA
:1058F000101F1F10101010101018060020E0E0E01C
:1059000000000000E0E0E02000FF013FFEC0E01EDC
:1059100001FFFF00101F1000031F0300101F1F10C6
:1059200020E0E0C0000000000020E02000FF0003B5
:10593000071C78E08000FF00101F1000000000002E
:10594000030F1F00000080C060202060C0800000A6
:1059500000FEFF010000000000FFFE000001070E36
:10596000181010180C07010020E0E0202020202053
:1059700060C0800000FFFF2020202020301F0F008B
:10598000101F1F100000000000000000000080C079
:1059900060202060C080000000FEFF0100000000C9
:1059A00000FFFE000001070E1111133C7C6721006F
:1059B00020E0E0202020202060C0800000FFFF10B9
:1059C0001030F0D0080F0700101F1F100000000358
:1059D0000F1C10100080C060202020204040E000FC
:1059E00000070F0C1818303060E08100001F0C0811
:1059F00010101010180F07008060202020E0E02019
:105A0000202060800100000000FFFF000000000176
:105A100000000000101F1F100000000020E0E02028
:105A2000000000000020E02000FFFF000000000058
:105A30000000FF0000070F181010101010080700DA
:105A40002060E0E02000000020E060200000077FF0
:105A5000F88000807C03000000000000071F1C0786
:105A60000000000020E0E02000E0E0200020E02036
:105A70000007FFF8E01FFFFCE01F00000000031F0D
:105A80000300011F03000000002060E0A0000020D0
:105A9000E0602000000000038F7CF8C601000000D9
:105AA0000010181E130001171F1810002060E0E0FE
:105AB0002000000020E06020000001073EF8E01810
:105AC0000700000000000010101F1F101000000051
:105AD00000806020202020A0E0E0200000000000E6
