:020000040800F2
:10000000480B002029020008B70F0008FF0E000867
:10001000B50F00081F040008F914000800000000D4
:100020000000000000000000000000004D14000867
:100030002104000800000000391300084F140008D4
:10004000430200084302000843020008430200087C
:10005000430200084302000843020008430200086C
:10006000430200084302000843020008430200085C
:10007000430200084302000843020008430200084C
:10008000430200084302000843020008430200083C
:10009000430200084302000843020008430200082C
:1000A000430200084302000843020008430200081C
:1000B000430200084302000843020008430200080C
:1000C00043020008430200084302000843020008FC
:1000D00043020008430200084302000843020008EC
:1000E00043020008430200084302000843020008DC
:1000F00043020008430200084302000843020008CC
:1001000043020008430200084302000843020008BB
:1001100043020008430200084302000843020008AB
:10012000430200084302000843020008430200089B
:100130004302000800000000000000004302000825
:10014000430200084302000843020008430200087B
:10015000430200084302000843020008430200086B
:10016000430200084302000843020008430200085B
:1001700043020008430200080000000000000000E5
:10018000430200084302000800F002F800F03CF8C7
:100190000AA090E8000C82448344AAF10107DA45E2
:1001A00001D100F031F8AFF2090EBAE80F0013F0F8
:1001B000010F18BFFB1A43F001031847DC310000A0
:1001C000FC310000103A24BF78C878C1FAD8520731
:1001D00024BF30C830C144BF04680C6070470000C1
:1001E0000023002400250026103A28BF78C1FBD840
:1001F000520728BF30C148BF0B6070471FB501F0E0
:10020000B5F91FBD10B510BD00F0CFF81146FFF7CE
:10021000F5FF01F083F900F0EDF803B4FFF7F2FF0A
:1002200003BC00F0F5F80000094880470948004782
:10023000FEE7FEE7FEE7FEE7FEE7FEE7FEE7FEE796
:10024000FEE7FEE704480549054A064B70470000F3
:10025000E91400088901000848050020480B002027
:10026000480700204807002053EA020C00F069808C
:100270002DE9F04B4FF00006002B1FBFB3FA83F5BA
:1002800003FA05F424FA05F65E4012BF1643B2FAEB
:1002900082F502FA05F4C5F120051EBF22FA05FC1D
:1002A00044EA0C04203556EA044C4FEA144418BFC3
:1002B000641C4FF000084FF00009904271EB030CF2
:1002C00039D3002919BFB1FA81F701FA07F6B0FA5C
:1002D00080F700FA07F6C7F120071EBF20FA07FCD7
:1002E00046EA0C062037B6FBF4FCA7EB0507103FE7
:1002F00007F01F0BCBF120060CFA0BFB2CFA06F6CD
:1003000044BFB3460026202FA4BF5E464FF0000B2B
:100310005BEA060C08BF4FF0010B19EB0B09ABFBB6
:10032000027C48EB0608C01B06FB02CC0BFB03CC8F
:1003300071EB0C01C1E70B46024641464846BDE859
:10034000F08B13B54FF000004FF00001AFF30080C9
:10035000BDE81C4070474FF0000200B513469446BC
:100360009646203922BFA0E80C50A0E80C50B1F10D
:100370002001BFF4F7AF090728BFA0E80C5048BF21
:100380000CC05DF804EB890028BF40F8042B08BFBF
:10039000704748BF20F8022B11F0804F18BF00F8BB
:1003A000012B7047704770477047754600F02CF876
:1003B000AE4605006946534620F00700854618B052
:1003C00020B5FFF73FFFBDE820404FF000064FF09B
:1003D00000074FF000084FF0000B21F00701AC467A
:1003E000ACE8C009ACE8C009ACE8C009ACE8C00999
:1003F0008D46704710B50446AFF300802046BDE837
:100400001040FFF70ABF000000487047E8040020D2
:1004100001491820ABBEFEE7260002007047FEE748
:10042000704772B6FEE700002DE9F84FDFF8BCA177
:100430000022012503264FF00F090AF1040BAAF14F
:10044000040E00BF0B6805FA02F42340A34270D1EA
:100450000F7907F00307012F01D0022F16D187680B
:100460004FEA420806FA08FC27EA0C07D1F80CC04C
:100470000CFA08FC4CEA070CC0F808C04768A74310
:100480000C79C4F3001494403C4344600C79E44379
:10049000A4070AD0C4684FEA420C06FA0CF7BC4322
:1004A0008F6807FA0CF72743C7600C7904F0030440
:1004B000022C12D1D40800EB840CDCF82040570742
:1004C000FF0E09FA07F824EA0804D1F8108008FAA8
:1004D00007F848EA0408CCF8208004684FEA420C88
:1004E00006FA0CF7BC430F7907F0030707FA0CF77D
:1004F000274307604C6814F4403F70D03C4C276899
:1005000047F480472760246822F0030704F48044FE
:100510000094384C07EB040CDCF8084897074FEAC6
:10052000177809FA08F7BC43334FB84202D10027C5
:1005300024E054E0314FB84201D101271EE0304F92
:10054000B84201D1022719E02E4FB84201D103274A
:1005500014E02D4FB84201D104270FE02B4FB842D1
:1005600001D105270AE02A4FB84201D1062705E04C
:10057000284FB84201D1072700E0082707FA08F7FB
:100580002743CCF80878DAF800405746D1F804C081
:100590009C435FEACC2C00D51C433C60DBF8004058
:1005A0005F46D1F804C09C435FEA8C2C00D51C4305
:1005B0003C60DEF800407746D1F804C09C435FEA17
:1005C0008C3C00D51C433C60084F083F3C68D1F888
:1005D00004C09C435FEACC3C00D51C433C60521CE9
:1005E000102AFFF42FAFBDE8F88F0000083C01404F
:1005F0004438024000300140000002400004024044
:1006000000080240000C02400010024000140240AA
:1006100000180240001C02400AB1816170470904C1
:10062000FBE70000014880687047000000000020E0
:100630000248816802781144816070470000002000
:100640000B4810B5016841F400710160016841F484
:1006500080610160016841F480710160032000F055
:1006600061F80F2000F006F800F024F8002010BD1B
:10067000003C024070B50D4D04464FF47A71287865
:10068000B1FBF0F00A490968B1FBF0F000F023FC7F
:1006900048B9102C07D200222146501E00F022F843
:1006A00000206C6070BD012070BD000000000020C3
:1006B0000C0000200A4808B5016841F4804101603F
:1006C000006800F4804000900548001F016841F078
:1006D00080510160006800F08050009008BD00006B
:1006E00044380240F0B40E4B1B680C46C3F302239F
:1006F000C3F10705042D00D90425191D072901D2CE
:10070000002300E0DB1E012606FA05F1491E214008
:1007100099409E40761E16403143F0BC00F0EDBE7D
:100720000CED00E0064900F0070208684FF6FF03F1
:10073000184040EA0220034A104308607047000056
:100740000CED00E00000FA052DE9F0470E4605002B
:1007500065D0DFF81481D8F80000F7B200F0070088
:10076000B04207D288F80070D8F8000000F0070007
:10077000B04254D128683D4C810712D5400703D5BB
:10078000206840F4E05020602878000703D52068F6
:1007900040F4604020602068A96820F0F000084321
:1007A00020602878C0072DD03049686808390128B2
:1007B00012D0022813D0032811D009688907002914
:1007C0002DDA216821F0030101432160FFF72AFFA0
:1007D000814641F2883A0EE009688903EFE709682B
:1007E0008901ECE7FFF71EFFA0EB0901514502D993
:1007F0000320BDE8F0872068696800F00C00B0EBCA
:10080000810FEFD1D8F80010404601F00701B14246
:1008100007D90770006800F00700B04201D001203E
:10082000E7E72878400705D52068E96820F4E0501C
:10083000084320602878000706D52068296920F43D
:10084000604040EAC100206000F018F82168084AC2
:10085000C1F30311515CC8400649086006480068AE
:10086000FFF708FF0020C4E7003C024008380240C0
:10087000761500080C00002004000020154810B573
:10088000006810F00C02144813D04110042A0FD055
:10089000082A0ED10F4C241F2268236802F03F0261
:1008A0005B0207D52068C0F38810A0FB010106E0B9
:1008B000084610BD2168C1F38811A1FB0001002387
:1008C000FFF7D2FC2168C1F30141491C4900B0FB8C
:1008D000F1F010BD083802400024F4002DE9F84F73
:1008E00004006ED02078DFF84C93C007A9F104050E
:1008F0004AD009F104000168C1F38101012908D03F
:100900000068C0F3810002280AD1D9F80000400233
:1009100006D52868800337D560680028E1D033E029
:100920006068B0F5803F10D0B0F5A02F286810D0D7
:1009300020F480302860286820F4802028606068D7
:10094000A8B1FFF76FFE06460DE0286840F480303E
:10095000F4E740F480202860F7E700BFFFF762FE6D
:10096000801B642873D828688003F7D50CE0FFF754
:1009700059FE064605E000BFFFF754FE801B6428C1
:10098000F0D828688003F7D42078DFF8AC8280079D
:100990004FF0000A3ED5A748001D016811F00C0F6A
:1009A00008D00068C0F3810002280BD1D9F80000FC
:1009B000400207D42868800716D5E068012800D1D6
:1009C00012E033E1E068B8B10120C8F80000FFF799
:1009D00029FE064605E000BFFFF724FE801B022823
:1009E000C0D828688007F7D52868216920F0F8006A
:1009F00040EAC10028600DE0C8F800A0FFF712FE31
:100A0000064604E0FFF70EFE801B02281FD8286868
:100A10008007F7D42078000722D5864F8748616980
:100A2000703771B101210160FFF7FCFD064604E05B
:100A3000FFF7F8FD801B022809D838688007F7D532
:100A40000EE0C0F800A0FFF7EDFD064605E082E0ED
:100A5000FFF7E8FD801B02287DD838688007F7D4AF
:100A60002078400768D5DFF8CCB100270BF13C0BAC
:100A7000DBF80000C0000BD4DBF8001041F080511F
:100A8000CBF80010DBF80000012700F08050009048
:100A90006B4E3068C00510D4306840F48070306010
:100AA000FFF7C0FD009005E0FFF7BCFD0099401A7C
:100AB000022850D83068C005F6D55E4EA0686C3666
:100AC00001280FD00528306810D020F001003060D8
:100AD000306820F004003060A068B8B1FFF7A2FDD4
:100AE00000900FE0306840F00100F4E740F00400AF
:100AF0003060F7E7FFF796FD0099411A41F2883020
:100B0000814266D830688007F4D50EE0FFF78AFD91
:100B1000009007E0FFF786FD0099411A41F2883006
:100B2000814256D830688007F4D42FB1DBF800102A
:100B300021F08051CBF80010A069C8B33D49091DD0
:100B40000968C1F3810102294AD00228504607D022
:100B5000C8F8600000E03CE0FFF764FD04463BE0BD
:100B60004746C8F86000FFF75DFD064605E000BF98
:100B7000FFF758FD801B02282BD828688001F7D486
:100B8000D4E907010843A16A2E4A490802EB014152
:100B9000626A41EA8211084394F82C1040EA01612C
:100BA000C9F8001001203866FFF73CFD044606E056
:100BB0003EE000BFFFF736FD001B022809D8286879
:100BC0008001F7D534E000BFFFF72CFD001B0228A1
:100BD00002D90320BDE8F88F28688001F4D427E00B
:100BE0000128F7D0D9F80000E26900F480019142B1
:100BF0001CD1226A00F03F01914217D147F6C07123
:100C0000626A0140B1EB821F10D1A26A4FF0FF333C
:100C100000F4403103EB5202B1EB024F06D194F8DD
:100C20002C1000F07060B0EB016F01D00120D1E713
:100C30000020CFE70438024000004742800E4742C0
:100C4000007000400000FFFF70B5040009D0606A2A
:100C5000002540B125616561A56294F8510040B15D
:100C60000CE0012070BD6068B0F5827FF4D0E561D2
:100C7000F2E784F85050204600F044F8022084F84F
:100C800051002068016821F040010160A08821899D
:100C900000F4827001F404410843A18901F4006169
:100CA0000843217C01F002010843217D01F001018C
:100CB0000843218B01F400710843217F01F03801C2
:100CC000084394F8201001F080010843218D01F4BD
:100CD0000051084321680860A069042101EA10401E
:100CE00094F8241001F0100108432168486020683E
:100CF000C16921F40061C1616565012084F851007A
:100D0000002070BD10B586B0044614216846FFF778
:100D100022FB14492068884221D11348002102682F
:100D200042F480420260006800F4804005900E4862
:100D30001038026842F002020260006800F002000F
:100D400005904FF4204000900220CDE901010320DE
:100D500003900520049069460448FFF765FB06B040
:100D600010BD00000038004040380240000402403E
:100D70002DE9F84F044690F8500000271D4616460E
:100D8000894601280DD04FF0010B84F850B0FFF7D1
:100D900049FC804694F85100BA46012804D0022745
:100DA00093E00220BDE8F88FB9F1000F73D0002E58
:100DB00071D0032084F85100C4F854A0C4F83090D6
:100DC000A686E686C4F838A0A4F83CA0A4F83EA005
:100DD000C4F844A0C4F840A0A068B0F5004F09D101
:100DE0002068016821F0400101602068016841F439
:100DF0008041016020680168490603D4016841F020
:100E000040010160E068B0F5006F606803D030B366
:100E1000012E24D041E008B1012E1CD1206B2168A5
:100E20000088C86006E020688168890709D5216BC1
:100E30000988C160206B801C2063E08E401EE08624
:100E400009E0FFF7EFFBA0EB0800A84202D3681C03
:100E500001D031E07DB3E08E0028E4D120E0206BAA
:100E600021680078087306E020688168890709D541
:100E7000216B09780173206B401C2063E08E401EBB
:100E8000E0860AE0FFF7CEFBA0EB0800A84203D300
:100E9000681C02D010E017E06DB1E08E0028E3D1AD
:100EA00042462946204600F049FA08B120206065F4
:100EB000A06818B106E0FFE7032706E02068C168D4
:100EC00080680090606D00B1012784F851B084F80B
:100ED00050A0384666E710B5401EB0F1807F01D3C0
:100EE000012010BD4FF0E02460610F21601700F079
:100EF00004FB0020A06107202061002010BDFEE758
:100F000070B586B014216846FFF725FA164800240C
:100F1000016841F080010160016801F080010591E4
:100F2000016841F002010160016801F002010591D0
:100F3000016841F00101016000680C4E00F0010001
:100F40004FF4A0450590002229463046FFF764FB88
:100F500001200095CDE90104694630460394FFF76E
:100F600063FA06B070BD0000303802400004024051
:100F70000F4810B50D4901604FF4827141600021A6
:100F80008160C1604FF400720161C0E90512C16166
:100F90000162416281620A21C162FFF755FE0028A9
:100FA00003D0BDE81040FFF73CBA10BD0038004048
:100FB00010000020FEE7FEE730B40021084B0A468F
:100FC0005FF0000003EBC004401CC0B262548028F4
:100FD000F8D3491CC9B20829F2D330BC00F096B846
:100FE0006800002030B5CC0801F0070301259D40C2
:100FF000EBB2064D05EBC005C808285C0AB11843E2
:1010000002E063EA0000C043285530BD68000020BC
:1010100010B50021AE2000F067F90021084600F06D
:1010200063F90021102000F05FF90021402000F05A
:101030005BF90021812000F057F90021CF2000F05A
:1010400053F90021A12000F04FF90021C82000F041
:101050004BF90021A62000F047F90021A82000F05C
:1010600043F900213F2000F03FF90021D32000F098
:101070003BF90021084600F037F90021D52000F0A7
:1010800033F90021802000F02FF90021D92000F051
:101090002BF90021F12000F027F90021DA2000F0DF
:1010A00023F90021122000F01FF90021DB2000F0BD
:1010B0001BF90021402000F017F90021202000F04A
:1010C00013F90021022000F00FF900218D2000F01B
:1010D0000BF90021142000F007F90021A42000F0F2
:1010E00003F90021A62000F0FFF8FFF765FF0021BB
:1010F000BDE81040AF2000F0F7B80246012000E044
:101100005043491EC9B2FBD27047000070B5114E62
:10111000002400BF04F1B000C0B2002100F0E4F8E8
:101120000021084600F0E0F80021102000F0DCF873
:101130005FF0000506EBC5000121005D00F0D4F86A
:101140006D1CEDB2802DF5D3641CE4B2082CE1D304
:1011500070BD0000680000202DE9FC4F1C460E46C3
:1011600082468B460190082B0ED0600700D00120EC
:1011700000EBD400610810FB01F0C0B28146203AB8
:10118000D0B2009000204AE00620F7E7082C12D0E9
:101190000C2C17D0102C1AD0182C43D100982349AE
:1011A00000EBC00001EB8001002711F80850E807B0
:1011B00012D00B9A13E000981D4900EB400001EBA0
:1011C0004001F1E700981B4900EB4000EAE71A49AB
:1011D000009801EB0011E7E70B9828B30022314695
:1011E0005046FFF7FFFE761C7F1C6D08FFB2F6B27B
:1011F000082FDCD30AF1010000F0FF0A082C0AD006
:101200000199AAEB0100B0EB540F04D10BF10800D7
:101210008A4600F0FF0B08F101005E46C0B280462E
:101220004845B3D3BDE8FC8F0122D8E7122200085D
:1012300086150008AE170008221C00082DE9F84F9B
:101240000025DDE90A691F4692468B468046082E36
:1012500000D1022500241CE0381B401EC1B20A2028
:10126000FFF74BFFBAFBF0F00A21B0FBF1F201FBF4
:101270001200CDF8009080B13030C2B205EB5601BB
:1012800001FB0480C0B233465946FFF765FF641C7A
:10129000E4B2BC42E0D3BDE8F88F05EB560101FB98
:1012A0000480C0B233463022EEE72DE9F8411E46F5
:1012B000154688460446079F0BE0334641462046C4
:1012C0000097FFF749FF082E0AD004EB5600C4B27E
:1012D0006D1C2A78A2F120005E28EED9BDE8F881C5
:1012E000A41DE4B2F4E7000073B5114C4FF480453F
:1012F00009B1012200E0002229462046FFF78CF9BF
:101300004FF48056002231462046FFF785F90A2324
:10131000012269460748FFF72BFD0122314620468E
:10132000FFF77AF9012229462046FFF775F97CBDBF
:1013300000040240100000207047000038B5044649
:101340001248134B0068B0FBF3F04FF47A73584324
:1013500000906068B0F5827F0DD10B4600920022AC
:101360008021204600F016F870B1606D40F020003A
:101370006065032038BD009830B1401E00902068A1
:101380008068C0430006F6D5002038BD0C00002060
:1013900000366E012DE9F8431E4691468846044604
:1013A000089DFFF73FF9401B351AFFF73BF9074649
:1013B00025480068C0F3CB30684338E0701C37D054
:1013C000FFF730F9C01BA84203D215B1009860B3F3
:1013D0002CE02068416821F0E00141606068B0F5D0
:1013E000827F0BD1A068B0F5004F02D0B0F5806FBE
:1013F00004D12068016821F040010160A06AB0F5C5
:10140000005F09D12068016821F400510160206863
:10141000016841F400510160012084F8510000206E
:1014200084F850000320BDE8F8830025401E00909A
:101430002068816838EA010004D000214945BDD107
:101440000020F0E70121F9E70C0000207047FFF7CA
:10145000EFB8000030B593B030216846FEF77BFF4F
:1014600014210CA8FEF777FF1D480025016841F004
:1014700080510160006800F08050119019480168A7
:1014800041F4804101600068022400F48040119022
:101490000120039010200490009406940820CDE9C8
:1014A0000750A820CDE9090404200B906846FFF7F7
:1014B00015FA08B172B6FEE70CA90F2081E83100D9
:1014C0004FF4A0500F904FF48050109005210CA8BD
:1014D000FFF73AF9002801D072B6FEE713B030BD2D
:1014E00040380240007000400248016841F4700139
:1014F0000160704788ED00E0FEE70907090E00284B
:1015000004DB00F1E02080F80014704700F00F00C9
:1015100000F1E02080F8141D704700001CB5FFF7B3
:101520008FF8FFF797FFFFF7EBFCFFF721FDFFF7C1
:101530006FFD01240021102309A208460094FFF743
:10154000B4FEFFF7E3FD1025CDE90054002103238D
:101550007B220846FFF772FEFFF7D8FDF4E7000094
:1015600053757065724361703A0000004FF040702F
:10157000E1EE100A704700000000000000000102C8
:101580000304060708090000000000000000002F07
:10159000000000000700070000147F147F140024DF
:1015A0002A7F2A120062640813230036495522500C
:1015B00000000503000000001C2241000000412241
:1015C0001C000014083E08140008083E080800002B
:1015D00000A0600000080808080800006060000023
:1015E000002010080402003E5149453E0000427FA1
:1015F0004000004261514946002141454B310018ED
:1016000014127F10002745454539003C4A494930AE
:101610000001710905030036494949360006494968
:10162000291E000036360000000056360000000873
:101630001422410000141414141400004122140850
:1016400000020151090600324959513E007C121135
:10165000127C007F49494936003E41414122007FCA
:101660004141221C007F49494941007F0909090184
:10167000003E4149497A007F0808087F0000417F09
:101680004100002040413F01007F08142241007FBB
:1016900040404040007F020C027F007F0408107F22
:1016A000003E4141413E007F09090906003E41518B
:1016B000215E007F09192946004649494931000148
:1016C000017F0101003F4040403F001F2040201F9C
:1016D000003F4038403F006314081463000708705F
:1016E000080700615149454300007F414100005512
:1016F0002A552A55000041417F00000402010204DE
:1017000000404040404000000102040000205454CA
:101710005478007F4844443800384444442000381A
:101720004444487F00385454541800087E0901028C
:101730000018A4A4A47C007F080404780000447D61
:101740004000004080847D00007F1028440000009D
:10175000417F4000007C04180478007C0804047871
:1017600000384444443800FC24242418001824245D
:1017700018FC007C08040408004854545420000459
:101780003F444020003C4040207C001C2040201C66
:10179000003C4030403C004428102844001CA0A0DD
:1017A000A07C004464544C44141414141414000019
:1017B000000000000000000000000000FC0000002D
:1017C000000002000000000C020C020000000000FB
:1017D000000090D0BCD0BC9000030003000018248F
:1017E000FE448C000302070201001824D8B04C808C
:1017F000000300010201C038E438E00001020201E8
:1018000002020806000000000000000000000000C6
:1018100000F80402000000010204000204F80000C5
:101820000004020100009060F860900000000100D8
:1018300000002020FC20200000000100000000002B
:1018400000000000080600000000202020202000EA
:101850000000000000000000000000000002000086
:1018600000000080601C0200040300000000F80477
:101870000404F8000102020201000008FC0000005C
:10188000000203020000188444241800030202022C
:10189000020008042424D80001020202010040B022
:1018A00088FC80000000000302003C242424C400C3
:1018B000010202020100F824242CC00001020202ED
:1018C00001000C04E41C0400000003000000D82404
:1018D0002424D80001020202010038444444F800E4
:1018E00000030202010000001000000000000200DE
:1018F00000000000200000000000060000000020A2
:101900005088040200000000010290909090900026
:1019100000000000000000020488502000020100C6
:1019200000001804C4241800000002000000F8049D
:10193000E494F80001020202020000E09CF0800042
:1019400002030000030204FC2424D8000203020264
:101950000100F80404040C0001020202010004FC6E
:101960000404F80002030202010004FC24740C00C9
:1019700002030202030004FC24740C0002030200B0
:101980000000F0080444CC4000010202010004FC05
:101990002020FC040203000003020404FC040400F1
:1019A000020203020200000404FC0404060404030F
:1019B000000004FC24D00C0402030200030204FC17
:1019C00004000000020302020203FC3CC03CFC00D5
:1019D00003000300030004FC30C4FC040203020003
:1019E0000300F8040404F80001020202010004FCF0
:1019F00024241800020302000000F8848404F80084
:101A000001020207050004FC24649800020302009E
:101A10000302182424448C000302020201000C0477
:101A2000FC040C0000020302000004FC0000FC04A3
:101A3000000102020100047C80E01C04000003009D
:101A400000001CE03CE01C00000300030000049CBC
:101A5000609C0400020300030200041CE01C04005C
:101A60000002030200000C84641C04000203020252
:101A700003000000FE020200000007040400000E44
:101A800030C00000000000010200000202FE000061
:101A9000000404070000000402040000000000002D
:101AA0000000000000000000080808080808000006
:101AB000020000000000000000000040A0A0C000E4
:101AC00000010202030204FC2020C0000003020205
:101AD000010000C02020600000010202020000C0DE
:101AE0002024FC0000010202030200C0A0A0C000EC
:101AF0000001020202000020F82424040002030274
:101B000002000040A0A0602000070A0A0A0404FCAA
:101B10002020C0000203020003020020E4000000B5
:101B2000000203020000000020E40000080808078B
:101B3000000004FC80E020200203020003020404F1
:101B4000FC000000020203020200E020E020C000CE
:101B500003000300030020E02020C0000203020075
:101B6000030200C02020C00000010202010020E0AA
:101B70002020C000080F0A02010000C02020E00061
:101B80000001020A0F0820E04020200002030200AA
:101B900000000060A0A0200000020202030000205C
:101BA000F820000000000102020020E00020E00018
:101BB00000010202030220E02080602000000301F7
:101BC00000006080E08060000003000300002060EF
:101BD0008060200002030003020020E020806020DB
:101BE0000808070100000020A06020000002030296
:101BF0000200000020DE02000000000704000000D8
:101C000000FF00000000000F00000002DE200000C6
:101C100000040700000002010204040200000000AA
:101C200000000000000000000000000000000000B4
:101C30000000000000F80000000000000033300049
:101C4000000000100C06100C060000000000000050
:101C5000000040C07840C0784000043F04043F04C6
:101C60000400007088FC08300000001820FF211ECE
:101C70000000F008F000E018000000211C031E2105
:101C80001E0000F00888700000001E212324192780
:101C9000211010160E0000000000000000000000DF
:101CA0000000000000E018040200000000071820F7
:101CB000400000020418E000000000402018070067
:101CC0000000404080F0804040000202010F01020D
:101CD0000200000000F0000000000101011F0101EE
:101CE0000100000000000000000080B07000000053
:101CF00000000000000000000000000101010101DF
:101D00000101000000000000000000303000000071
:101D10000000000000008060180400601806010048
:101D2000000000E010080810E000000F1020201054
:101D30000F00001010F8000000000020203F2020BD
:101D40000000007008080888700000302824222154
:101D5000300000300888884830000018202020110A
:101D60000E000000C02010F8000000070424243FEB
:101D7000240000F808888808080000192120201194
:101D80000E0000E0108888180000000F11202011BC
:101D90000E0000380808C83808000000003F0000A6
:101DA00000000070880808887000001C2221212291
:101DB0001C0000E010080810E00000003122221191
:101DC0000F00000000C0C000000000000030300024
:101DD00000000000008000000000000080600000A3
:101DE00000000000804020100800000102040810DC
:101DF00020004040404040404000040404040404EB
:101E00000400000810204080000000201008040298
:101E10000100007048080808F0000000003036019A
:101E20000000C030C828E810E00007182724231459
:101E30000B000000C038E0000000203C2302022715
:101E4000382008F8888888700000203F2020201162
:101E50000E00C0300808080838000718202020109D
:101E6000080008F808080810E000203F2020201093
:101E70000F0008F88888E8081000203F2020232061
:101E8000180008F88888E8081000203F20000300A8
:101E90000000C03008080838000007182020221E63
:101EA000020008F808000008F808203F210101217D
:101EB0003F20000808F8080800000020203F2020EC
:101EC000000000000808F8080800C08080807F003B
:101ED000000008F888C028180800203F2001263894
:101EE000200008F8080000000000203F20202020EB
:101EF000300008F8F800F8F80800203F003F003FE5
:101F0000200008F830C00008F808203F200007181B
:101F10003F00E01008080810E0000F1020202010FB
:101F20000F0008F808080808F000203F210101010F
:101F30000000E01008080810E0000F1824243850B2
:101F40004F0008F8888888887000203F2000030C24
:101F5000302000708808080838000038202121222D
:101F60001C00180808F8080818000000203F20008E
:101F7000000008F808000008F808001F20202020B2
:101F80001F000878880000C83808000007380E01D4
:101F90000000F80800F80008F800033C0700073CC0
:101FA0000300081868808068180820302C03032C70
:101FB00030200838C800C83808000000203F200042
:101FC000000010080808C838080020382621202002
:101FD0001800000000FE020202000000007F4040E6
:101FE0004000000C30C00000000000000001063876
:101FF000C00000020202FE000000004040407F00DE
:1020000000000000040202020400000000000000C2
:1020100000000000000000000000808080808080C0
:1020200080800002020400000000000000000000A8
:1020300000000000808080800000001924222222FD
:102040003F2008F8008080000000003F1120201190
:102050000E000000008080800000000E1120202073
:102060001100000000808088F800000E1120201070
:102070003F200000808080800000001F222222225A
:102080001300008080F0888888180020203F2020DE
:1020900000000000808080808000006B9494949306
:1020A000600008F8008080800000203F21000020B0
:1020B0003F2000809898000000000020203F202052
:1020C0000000000000809898000000C08080807FA1
:1020D000000008F8000080808000203F24022D309E
:1020E0002000000808F8000000000020203F202009
:1020F00000008080808080808000203F20003F2082
:10210000003F8080008080800000203F2100002070
:102110003F200000808080800000001F20202020C1
:102120001F00808000808000000080FFA12020111F
:102130000E000000008080808000000E112020A092
:10214000FF80808080008080800020203F21200050
:10215000010000008080808080000033242424243B
:102160001900008080E0808000000000001F202017
:1021700000008080000000808000001F20202010D0
:102180003F20808080000080808000010E300806A3
:10219000010080800080008080800F300C030C30B4
:1021A0000F0000808000808080000020312E0E31E2
:1021B0002000808080000080808080818E701806E2
:1021C000010000808080808080000021302C22214E
:1021D000300000000000807C020200000000003F90
:1021E000404000000000FF00000000000000FF0071
:1021F00000000002027C800000000040403F000020
:1022000000000006010102020404000000000000BA
:1022100000000000000000000000000000000000BE
:1022200000000000000000000000000000000000AE
:102230000000000000000000000000F0F0F00000CE
:1022400000000000000000017F010000000000000D
:102250000000001C1C1C0000000000008060301CFE
:102260008C60301C0C00000000000000000000002A
:10227000000000000000000000000000000000005E
:1022800000E00000000000E000000086E69F868677
:102290008686E69F860000011F01010101011F01E2
:1022A0000100000080C06020F820E0C000000000B5
:1022B00003070C18FF70E18100000000070F1010E9
:1022C0007F100F0700008060206080000000E02089
:1022D00000000F3020309F70DC371030C00000004D
:1022E000100E03000718101807000000C02020E09F
:1022F000C0000000000080E01F38E88703C43C04F1
:102300000000070F1810100B070D101008000080B8
:102310008C4C3800000000000000000000000000AD
:1023200000000000000000000000000000000000AD
:10233000000000000000000080E030080400000001
:10234000000000FEFF01000000000000000000008F
:10235000030F1820400000040830E0800000000057
:1023600000000000000001FFFE000000000000402F
:1023700020180F0300000000000000000000000013
:10238000C00000000000004266663C18FF183C6672
:102390006642000000000000030000000000000092
:1023A000000000008000000000000010101010105D
:1023B000FF101010101000000000000003000000CB
:1023C000000000000000000000000000000000000D
:1023D0000000000000000000000000808C4C38006D
:1023E00000000000000000000000000000000000ED
:1023F000000000101010101010101010100000003D
:1024000000000000000000000000000000000000CC
:1024100000000000000000000000000000000000BC
:10242000000000001C1C1C00000000000000000058
:10243000000000000000E0380C0000000000807088
:102440001C03000000000060380E010000000000C6
:102450000000000080C060202060C080000000FEFE
:10246000FF010000000001FFFE000001070E181030
:1024700010180E0701000000808080C0E0000000FE
:1024800000000000000000FFFF000000000000004E
:102490001010101F1F10101000000080402020207E
:1024A0002060C080000000030300804020381F0728
:1024B0000000001C1A1918181818181F00000080B6
:1024C000C020202060C08000000000030300101026
:1024D000182FE780000000070F10101010180F07CA
:1024E0000000000000000000C0E0F000000000C09C
:1024F000B088868180FFFF8080000000000000100F
:10250000101F1F1010000000E060606060606060DD
:10251000000000003F1008080818F0E00000000765
:102520000B101010101C0F030000000080C0402092
:102530002020E0C0000000FCFF211008080818F06F
:10254000E0000001070C18101010080F0300000035
:10255000C0E06060606060E06000000003000000B8
:10256000E0180700000000000000001F1F0000002E
:1025700000000080C0602020202060C08000008714
:10258000EF2C1818303068CF830000070F081010A8
:102590001010180F07000000C0C020202020C080AD
:1025A0000000001F3F604040402010FFFE00000080
:1025B0000C1C101010080F030000000000000000A9
:1025C00000000000000000000000000E0E0E0000E1
:1025D000000000000000001C1C1C000000000000A7
:1025E0000000000000000000000000000000000CDF
:1025F0000C0000000000000000000058380000003F
:1026000000000000000000000080402010000000DA
:1026100010284482010000000000000000000000BB
:10262000010204081000000000000000000000008B
:102630000000008484848484848484848400000072
:10264000000000000000000000000000102040809A
:10265000000000000000000000000000018244288B
:10266000100000001008040201000000000000C07B
:1026700020201010101030E0C0000003030000F014
:1026800010080C070300000000001C1C1C000000C8
:102690000000000000C0406020202040C00000FC7E
:1026A000FF01F00E03C1FE03807F0001070E081139
:1026B0001110110904020000000080E0E000000099
:1026C00000000000807C4340477FF8800000101825
:1026D0001F1000000000131F1C1020E0E02020202D
:1026E0002060C080000000FFFF10101010182FE7BE
:1026F0008000101F1F1010101010180F070000008E
:1027000080C0402020202060E00000FCFF0100008D
:102710000000000001000001070E1810101008044E
:10272000030020E0E02020202040C080000000FFC7
:10273000FF000000000001FFFE00101F1F1010101E
:1027400018080E07010020E0E02020202020206053
:10275000800000FFFF101010107C00000000101F10
:102760001F10101010101018060020E0E02020208C
:1027700020206060800000FFFF101010107C00001F
:102780000100101F1F1000000000000000000000EA
:1027900080C06020202040E0000000FCFF0100001D
:1027A0004040C0C140400001070E181010100F0F2C
:1027B000000020E0E0200000000020E0E02000FF1A
:1027C000FF101010101010FFFF00101F1F1000004E
:1027D0000000101F1F100000202020E0E02020201B
:1027E00000000000000000FFFF00000000000000EB
:1027F0001010101F1F1010100000000000002020FB
:1028000020E0E020202000000000000000FFFF008A
:1028100000000060E0808080C07F3F00000020E07A
:10282000E020000020A06020200000FFFF30187C86
:10283000E3C000000000101F1F10000001131F1C48
:10284000181020E0E020000000000000000000FF61
:10285000FF000000000000000000101F1F101010FB
:1028600010101018060020E0E0E000000000E0E09A
:10287000E02000FF013FFEC0E01E01FFFF00101F2F
:102880001000031F0300101F1F1020E0E0C0000015
:1028900000000020E02000FF0003071C78E080001B
:1028A000FF00101F100000000000030F1F000000B9
:1028B00080C060202060C080000000FEFF0100009A
:1028C000000000FFFE000001070E181010180C0792
:1028D000010020E0E0202020202060C0800000FFD8
:1028E000FF2020202020301F0F00101F1F1000008D
:1028F000000000000000000080C060202060C08058
:10290000000000FEFF010000000000FFFE000001CB
:10291000070E1111133C7C67210020E0E0202020ED
:10292000202060C0800000FFFF101030F0D0080FA2
:102930000700101F1F10000000030F1C1010008064
:10294000C060202020204040E00000070F0C181835
:10295000303060E08100001F0C0810101010180FBC
:1029600007008060202020E0E0202020608001001F
:10297000000000FFFF000000000100000000101F29
:102980001F100000000020E0E020000000000020F8
:10299000E02000FFFF00000000000000FF00000733
:1029A0000F1810101010100807002060E0E0200041
:1029B000000020E060200000077FF88000807C039A
:1029C000000000000000071F1C070000000020E0BE
:1029D000E02000E0E0200020E0200007FFF8E01FFA
:1029E000FFFCE01F00000000031F0300011F0300A5
:1029F0000000002060E0A0000020E0602000000057
:102A000000038F7CF8C6010000000010181E1300A0
:102A100001171F1810002060E0E02000000020E0F7
:102A20006020000001073EF8E018070000000000E9
:102A30000010101F1F1010000000008060202020D8
:102A400020A0E0E0200000000000C0F03E0F0300E6
:102A5000000000101C1F17101010101806000000B6
:102A6000000000FC0404040404000000000000FF57
:102A700000000000000000000000007F40404040D7
:102A80004000000010E00000000000000000000016
:102A90000000031C60800000000000000000000037
:102AA00000030C70800000000404040404FC000017
:102AB000000000000000000000FF00000000000017
:102AC00040404040407F0000000000000010080C23
:102AD000040C0810000000000000000000000000CE
:102AE00000000000000000000000000000000000E6
:102AF00000000000000000000000000000000000D6
:102B000000000000000080808080808080808080C5
:102B1000808000000004040808000000000000009D
:102B200000000000000000000000000000000000A5
:102B30000000000000000000000000000000000095
:102B40000000000098D844642424FCF80000000F22
:102B50001F18101010081F1F10180020E0F00000B0
:102B60000000000000000000FFFF180804040CF83B
:102B7000F00000001F0F18101010180F03000000C5
:102B80000000000000000000000000E0F81804044D
:102B9000043C3800000000030F0C10101010080651
:102BA00000000000000000000020E0F0000000E055
:102BB000F81C04040408FFFF000000030F181010A5
:102BC00010081F0F080000000000000000000000B7
:102BD00000000000E0F8484444444C7870000000D5
:102BE000030F0C181010100804000000000080C033
:102BF000602020E0C00000040404FFFF040404047B
:102C00000000000010101F1F101010000000000036
:102C100000000000000000000000000070F88C04BC
:102C2000048CF874040C007076CF8D8D8D89C87873
:102C300070000020E0F00000000000000000000034
:102C4000FFFF08040404FCF8000000101F1F100020
:102C500000101F1F10000000000000606000000056
:102C600000000000040404FCFC0000000000000060
:102C70001010101F1F1010100000000000000000B6
:102C800000606000000000000000040404FCFC0080
:102C900000000000C0C08080C07F3F000000002016
:102CA000E0F000000000000000000000FFFF80C016
:102CB000F41C0404000000101F1F1100031F1C104F
:102CC00010000000202020E0F000000000000000C4
:102CD000000000FFFF000000000000001010101FA7
:102CE0001F10101000000000000000000000000095
:102CF000000004FCFC0804FCFC0804FCFC00101FA1
:102D00001F10001F1F10001F1F10000000000000F8
:102D10000000000000000004FCFC08080404FCF8AB
:102D2000000000101F1F100000101F1F10000000E7
:102D30000000000000000000000000E0F0180C049B
:102D4000040C18F0E00000030F0C101010100C0F12
:102D5000030000000000000000000000000000046C
:102D6000FCFC080404040CF8F0000080FFFF8890CD
:102D700010101C0F03000000000000000000000005
:102D8000000000E0F81C04040408F8FC0000000344
:102D90000F1810109088FFFF800000000000000056
:102DA000000000000000040404FCFC100804040CF3
:102DB0000C001010101F1F10101000000000000069
:102DC0000000000000000000000000003078CCC4CB
:102DD0008484840C1C0000001E1810101011190FA0
:102DE00006000000000000C0000000000000000419
:102DF0000404FFFF040404000000000000000F1F93
:102E00001010100C00000000000000000000000086
:102E100000000004FCFE00000004FCFE00000000B6
:102E20000F1F181010081F0F0800000000000000FE
:102E300000000000000000040C3CFCC40000C43C86
:102E40000C0400000000010F1E0E01000000000035
:102E500000000000000000000000043CFCC400E48E
:102E60007CFC84807C040000071F070000071F070C
:102E7000000000000000000000000000000000044E
:102E8000041C7CE4C0341C0404000010101C160157
:102E9000131F1C18100000000000000000000000BC
:102EA000000000040C3CFCC400C43C04040000000E
:102EB000C080C1370E0100000000000000000000CB
:102EC00000000000000000001C0404C4F47C1C048A
:102ED00000000000101C1F17111010180E00000039
:102EE0000000000000F80C040000000000000010CA
:102EF00028EF00000000000000000000003F6040DC
:102F00000000000000000000FF00000000000000C2
:102F100000000000FF0000000000000000000000B2
:102F2000FF00000000000000040CF800000000009A
:102F3000000000000000EF2810000000000000006A
:102F400040603F000000000000000018060202047C
:102F500008102020300800000000000000000000E1
:102F60000000000000000000000000000000000061
:102F7000F010101010FF10101010F00000000000F2
:102F80000F04040404FF040404040F000000404084
:102F9000405F555555755555555F404040000040C0
:102FA000200F094989790909090F2040000000FE16
:102FB00002424ACA4A4ACA4A4A4202FE000000FF86
:102FC00040504C4340404F50505C40FF00000000D8
:102FD000F888888888FF88888888F80000000000C2
:102FE0001F080808087F888888889F80F0008082F2
:102FF0008282828282E2A2928A868280800000009F
:1030000000000040807F0000000000000000101061
:1030100010FF109008888888FF888888080004447A
:10302000827F01808040432C102846818000001060
:10303000101010D030FF30D0121C101000001008FB
:103040000402010000FF0000010204081000040453
:103050000484E43C2724242424E40404040004021B
:103060000100FF0909090949897F0000000000FEED
:10307000225A8600FE9292929292FE00000000FF79
:1030800004080700FF4020030C1422414000008088
:103090004020180680000718204080000000010032
:1030A0002070282621202024386000010100001013
:1030B00012929292929292121202FE00000000006E
:1030C000003F101010103F0040807F000000000003
:1030D00000C080808080808080FC848080808080B0
:1030E00080C0C0000000000000FF7F404040404022
:1030F00040FF40404040404040FF7F000000000053
:103100000000000000000000007F700000000000D0
:1031100000000000000000000000000000000000AF
:103120000000000000FCF8000000000000000000AB
:1031300000000000000000000000FFFE020202028A
:103140000202020202FFFF02020202020202020265
:10315000FF0300000000000000001F1F040404041F
:103160000404040404FFFF04040404040404040429
:103170001F00000000000000000000000000000030
:1031800000000000007F3F00000000000000000081
:10319000000000000000000000000000000000002F
:1031A000000000000000000000000000000000001F
:1031B000000000F8F8F0F0702000000000000000AF
:1031C00000000000000000000000000000000000FF
:1031D000000000000000000000000000000080006F
:1031E00000000000000000000000000000000000DF
:1031F000000000FFFFFFFF000000000000000000D3
:1032000000000000000000000000808000000000BE
:10321000000000000000000000000000000000FFAF
:10322000FFFE06060606060606060606060606064D
:10323000060606FFFFFFFF0606060606060606064A
:10324000060606060606060606FFFFFFFF07020043
:10325000000000000000000000000000000000FF6F
:10326000FFFF000000000000000000000000000060
:10327000000000FFFFFFFF00000000000000000052
:10328000000000000000000000FFFFFFFF00000042
:10329000000000000000000000000000000000FF2F
:1032A000FFFF1818181818181818181818181818D0
:1032B000181818FFFFFFFF181818181818181818F2
:1032C000181818181818181818FFFFFFFF0000002A
:1032D00000000000000000000000000000000201EB
:1032E00001000000000000000000000000000000DD
:1032F000000000FFFFFFFF000000000000000000D2
:1033000000000000000000000001010000000000BB
:1033100000000000000000000000000000000000AD
:10332000000000000000000000000000000000009D
:10333000000000FFFFFFFF00000000000000000091
:10334000000000000000000000000000000000007D
:10335000000000000000000000000000000000006D
:10336000000000000000000000000000000000005D
:103370000000001F1F0F0F000000000000000000F1
:10338000000000000000000000000000000000003D
:103390000000000000000000B8330008000000201A
:1033A00010000000C4010008C8330008100000200D
:1033B000380B0000E00100080100000010000000D0
:0833C000000000000024F400ED
:040000050800018965
:00000001FF
